{
  "abi": [
    {
      "inputs": [
        {
          "internalType": "contract IERC721",
          "name": "_nftCollection",
          "type": "address"
        },
        {
          "internalType": "contract IERC20",
          "name": "_rewardsToken",
          "type": "address"
        }
      ],
      "stateMutability": "nonpayable",
      "type": "constructor"
    },
    {
      "inputs": [
        {
          "internalType": "address",
          "name": "_staker",
          "type": "address"
        }
      ],
      "name": "availableRewards",
      "outputs": [
        {
          "internalType": "uint256",
          "name": "",
          "type": "uint256"
        }
      ],
      "stateMutability": "view",
      "type": "function"
    },
    {
      "inputs": [],
      "name": "claimRewards",
      "outputs": [],
      "stateMutability": "nonpayable",
      "type": "function"
    },
    {
      "inputs": [
        {
          "internalType": "address",
          "name": "_user",
          "type": "address"
        }
      ],
      "name": "getStakedTokens",
      "outputs": [
        {
          "components": [
            {
              "internalType": "address",
              "name": "staker",
              "type": "address"
            },
            {
              "internalType": "uint256",
              "name": "tokenId",
              "type": "uint256"
            }
          ],
          "internalType": "struct ERC721Staking.StakedToken[]",
          "name": "",
          "type": "tuple[]"
        }
      ],
      "stateMutability": "view",
      "type": "function"
    },
    {
      "inputs": [],
      "name": "nftCollection",
      "outputs": [
        {
          "internalType": "contract IERC721",
          "name": "",
          "type": "address"
        }
      ],
      "stateMutability": "view",
      "type": "function"
    },
    {
      "inputs": [],
      "name": "rewardsToken",
      "outputs": [
        {
          "internalType": "contract IERC20",
          "name": "",
          "type": "address"
        }
      ],
      "stateMutability": "view",
      "type": "function"
    },
    {
      "inputs": [
        {
          "internalType": "uint256",
          "name": "_tokenId",
          "type": "uint256"
        }
      ],
      "name": "stake",
      "outputs": [],
      "stateMutability": "nonpayable",
      "type": "function"
    },
    {
      "inputs": [
        {
          "internalType": "uint256",
          "name": "",
          "type": "uint256"
        }
      ],
      "name": "stakerAddress",
      "outputs": [
        {
          "internalType": "address",
          "name": "",
          "type": "address"
        }
      ],
      "stateMutability": "view",
      "type": "function"
    },
    {
      "inputs": [
        {
          "internalType": "address",
          "name": "",
          "type": "address"
        }
      ],
      "name": "stakers",
      "outputs": [
        {
          "internalType": "uint256",
          "name": "amountStaked",
          "type": "uint256"
        },
        {
          "internalType": "uint256",
          "name": "timeOfLastUpdate",
          "type": "uint256"
        },
        {
          "internalType": "uint256",
          "name": "unclaimedRewards",
          "type": "uint256"
        }
      ],
      "stateMutability": "view",
      "type": "function"
    },
    {
      "inputs": [
        {
          "internalType": "uint256",
          "name": "_tokenId",
          "type": "uint256"
        }
      ],
      "name": "withdraw",
      "outputs": [],
      "stateMutability": "nonpayable",
      "type": "function"
    }
  ],
  "devdoc": {
    "kind": "dev",
    "methods": {},
    "version": 1
  },
  "evm": {
    "assembly": "    /* \"devilwears-staking.sol\":311:7536  contract ERC721Staking is ReentrancyGuard {... */\n  mstore(0x40, 0xc0)\n    /* \"devilwears-staking.sol\":1429:1430  2 */\n  0x02\n    /* \"devilwears-staking.sol\":1396:1430  uint256 private rewardsPerHour = 2 */\n  0x01\n  sstore\n    /* \"devilwears-staking.sol\":612:758  constructor(IERC721 _nftCollection, IERC20 _rewardsToken) {... */\n  callvalue\n  dup1\n  iszero\n  tag_1\n  jumpi\n  0x00\n  dup1\n  revert\ntag_1:\n  pop\n  mload(0x40)\n  sub(codesize, bytecodeSize)\n  dup1\n  bytecodeSize\n  dup4\n  codecopy\n  dup2\n  add\n  0x40\n  dup2\n  swap1\n  mstore\n  tag_2\n  swap2\n  tag_3\n  jump\t// in\ntag_2:\n    /* \"@openzeppelin/contracts/security/ReentrancyGuard.sol\":1701:1702   */\n  0x01\n    /* \"@openzeppelin/contracts/security/ReentrancyGuard.sol\":1806:1813   */\n  0x00\n    /* \"@openzeppelin/contracts/security/ReentrancyGuard.sol\":1806:1828   */\n  sstore\n  sub(shl(0xa0, 0x01), 0x01)\n    /* \"devilwears-staking.sol\":681:711  nftCollection = _nftCollection */\n  swap2\n  dup3\n  and\n  0xa0\n  mstore\n    /* \"devilwears-staking.sol\":722:750  rewardsToken = _rewardsToken */\n  and\n  0x80\n  mstore\n    /* \"devilwears-staking.sol\":311:7536  contract ERC721Staking is ReentrancyGuard {... */\n  jump(tag_10)\n    /* \"#utility.yul\":14:154   */\ntag_9:\n  sub(shl(0xa0, 0x01), 0x01)\n    /* \"#utility.yul\":98:129   */\n  dup2\n  and\n    /* \"#utility.yul\":88:130   */\n  dup2\n  eq\n    /* \"#utility.yul\":78:148   */\n  tag_12\n  jumpi\n    /* \"#utility.yul\":144:145   */\n  0x00\n    /* \"#utility.yul\":141:142   */\n  dup1\n    /* \"#utility.yul\":134:146   */\n  revert\n    /* \"#utility.yul\":78:148   */\ntag_12:\n    /* \"#utility.yul\":14:154   */\n  pop\n  jump\t// out\n    /* \"#utility.yul\":159:592   */\ntag_3:\n    /* \"#utility.yul\":268:274   */\n  0x00\n    /* \"#utility.yul\":276:282   */\n  dup1\n    /* \"#utility.yul\":329:331   */\n  0x40\n    /* \"#utility.yul\":317:326   */\n  dup4\n    /* \"#utility.yul\":308:315   */\n  dup6\n    /* \"#utility.yul\":304:327   */\n  sub\n    /* \"#utility.yul\":300:332   */\n  slt\n    /* \"#utility.yul\":297:349   */\n  iszero\n  tag_14\n  jumpi\n    /* \"#utility.yul\":345:346   */\n  0x00\n    /* \"#utility.yul\":342:343   */\n  dup1\n    /* \"#utility.yul\":335:347   */\n  revert\n    /* \"#utility.yul\":297:349   */\ntag_14:\n    /* \"#utility.yul\":377:386   */\n  dup3\n    /* \"#utility.yul\":371:387   */\n  mload\n    /* \"#utility.yul\":396:436   */\n  tag_15\n    /* \"#utility.yul\":430:435   */\n  dup2\n    /* \"#utility.yul\":396:436   */\n  tag_9\n  jump\t// in\ntag_15:\n    /* \"#utility.yul\":505:507   */\n  0x20\n    /* \"#utility.yul\":490:508   */\n  dup5\n  add\n    /* \"#utility.yul\":484:509   */\n  mload\n    /* \"#utility.yul\":455:460   */\n  swap1\n  swap3\n  pop\n    /* \"#utility.yul\":518:560   */\n  tag_16\n    /* \"#utility.yul\":484:509   */\n  dup2\n    /* \"#utility.yul\":518:560   */\n  tag_9\n  jump\t// in\ntag_16:\n    /* \"#utility.yul\":579:586   */\n  dup1\n    /* \"#utility.yul\":569:586   */\n  swap2\n  pop\n  pop\n    /* \"#utility.yul\":159:592   */\n  swap3\n  pop\n  swap3\n  swap1\n  pop\n  jump\t// out\ntag_10:\n    /* \"devilwears-staking.sol\":311:7536  contract ERC721Staking is ReentrancyGuard {... */\n  mload(0x80)\n  mload(0xa0)\n  codecopy(0x00, dataOffset(sub_0), dataSize(sub_0))\n  0x00\n  assignImmutable(\"0x8e8fab5f003314da8d1873ea7720e8d9f47650136d916064d1edb8a11d682624\")\n  0x00\n  assignImmutable(\"0x5c4c6aa067b6f8e6cb38e6ab843832a94d1712d661a04d73c517d6a1931a9e5d\")\n  return(0x00, dataSize(sub_0))\nstop\n\nsub_0: assembly {\n        /* \"devilwears-staking.sol\":311:7536  contract ERC721Staking is ReentrancyGuard {... */\n      mstore(0x40, 0x80)\n      callvalue\n      dup1\n      iszero\n      tag_1\n      jumpi\n      0x00\n      dup1\n      revert\n    tag_1:\n      pop\n      jumpi(tag_2, lt(calldatasize, 0x04))\n      shr(0xe0, calldataload(0x00))\n      dup1\n      0x9168ae72\n      gt\n      tag_12\n      jumpi\n      dup1\n      0xa694fc3a\n      gt\n      tag_13\n      jumpi\n      dup1\n      0xa694fc3a\n      eq\n      tag_9\n      jumpi\n      dup1\n      0xd1af0c7d\n      eq\n      tag_10\n      jumpi\n      dup1\n      0xf854a27f\n      eq\n      tag_11\n      jumpi\n      0x00\n      dup1\n      revert\n    tag_13:\n      dup1\n      0x9168ae72\n      eq\n      tag_7\n      jumpi\n      dup1\n      0x94067045\n      eq\n      tag_8\n      jumpi\n      0x00\n      dup1\n      revert\n    tag_12:\n      dup1\n      0x2e1a7d4d\n      eq\n      tag_3\n      jumpi\n      dup1\n      0x372500ab\n      eq\n      tag_4\n      jumpi\n      dup1\n      0x63c28db1\n      eq\n      tag_5\n      jumpi\n      dup1\n      0x6588103b\n      eq\n      tag_6\n      jumpi\n    tag_2:\n      0x00\n      dup1\n      revert\n        /* \"devilwears-staking.sol\":3477:5266  function withdraw(uint256 _tokenId) external nonReentrant {... */\n    tag_3:\n      tag_14\n      tag_15\n      calldatasize\n      0x04\n      tag_16\n      jump\t// in\n    tag_15:\n      tag_17\n      jump\t// in\n    tag_14:\n      stop\n        /* \"devilwears-staking.sol\":5449:5835  function claimRewards() external {... */\n    tag_4:\n      tag_14\n      tag_19\n      jump\t// in\n        /* \"devilwears-staking.sol\":6112:6985  function getStakedTokens(address _user) public view returns (StakedToken[] memory) {... */\n    tag_5:\n      tag_20\n      tag_21\n      calldatasize\n      0x04\n      tag_22\n      jump\t// in\n    tag_21:\n      tag_23\n      jump\t// in\n    tag_20:\n      mload(0x40)\n      tag_24\n      swap2\n      swap1\n      tag_25\n      jump\t// in\n    tag_24:\n      mload(0x40)\n      dup1\n      swap2\n      sub\n      swap1\n      return\n        /* \"devilwears-staking.sol\":478:516  IERC721 public immutable nftCollection */\n    tag_6:\n      tag_26\n      immutable(\"0x8e8fab5f003314da8d1873ea7720e8d9f47650136d916064d1edb8a11d682624\")\n      dup2\n      jump\n    tag_26:\n      mload(0x40)\n      sub(shl(0xa0, 0x01), 0x01)\n        /* \"#utility.yul\":1636:1691   */\n      swap1\n      swap2\n      and\n        /* \"#utility.yul\":1618:1692   */\n      dup2\n      mstore\n        /* \"#utility.yul\":1606:1608   */\n      0x20\n        /* \"#utility.yul\":1591:1609   */\n      add\n        /* \"devilwears-staking.sol\":478:516  IERC721 public immutable nftCollection */\n      tag_24\n        /* \"#utility.yul\":1456:1698   */\n      jump\n        /* \"devilwears-staking.sol\":1486:1527  mapping(address => Staker) public stakers */\n    tag_7:\n      tag_30\n      tag_31\n      calldatasize\n      0x04\n      tag_22\n      jump\t// in\n    tag_31:\n      0x02\n      0x20\n      dup2\n      swap1\n      mstore\n      0x00\n      swap2\n      dup3\n      mstore\n      0x40\n      swap1\n      swap2\n      keccak256\n      dup1\n      sload\n      swap2\n      dup2\n      add\n      sload\n      0x03\n      swap1\n      swap2\n      add\n      sload\n      dup4\n      jump\n    tag_30:\n      0x40\n      dup1\n      mload\n        /* \"#utility.yul\":1905:1930   */\n      swap4\n      dup5\n      mstore\n        /* \"#utility.yul\":1961:1963   */\n      0x20\n        /* \"#utility.yul\":1946:1964   */\n      dup5\n      add\n        /* \"#utility.yul\":1939:1973   */\n      swap3\n      swap1\n      swap3\n      mstore\n        /* \"#utility.yul\":1989:2007   */\n      swap1\n      dup3\n      add\n        /* \"#utility.yul\":1982:2016   */\n      mstore\n        /* \"#utility.yul\":1893:1895   */\n      0x60\n        /* \"#utility.yul\":1878:1896   */\n      add\n        /* \"devilwears-staking.sol\":1486:1527  mapping(address => Staker) public stakers */\n      tag_24\n        /* \"#utility.yul\":1703:2022   */\n      jump\n        /* \"devilwears-staking.sol\":1648:1696  mapping(uint256 => address) public stakerAddress */\n    tag_8:\n      tag_26\n      tag_36\n      calldatasize\n      0x04\n      tag_16\n      jump\t// in\n    tag_36:\n      mstore(0x20, 0x03)\n      0x00\n      swap1\n      dup2\n      mstore\n      0x40\n      swap1\n      keccak256\n      sload\n      sub(shl(0xa0, 0x01), 0x01)\n      and\n      dup2\n      jump\n        /* \"devilwears-staking.sol\":1970:3224  function stake(uint256 _tokenId) external nonReentrant {... */\n    tag_9:\n      tag_14\n      tag_41\n      calldatasize\n      0x04\n      tag_16\n      jump\t// in\n    tag_41:\n      tag_42\n      jump\t// in\n        /* \"devilwears-staking.sol\":435:471  IERC20 public immutable rewardsToken */\n    tag_10:\n      tag_26\n      immutable(\"0x5c4c6aa067b6f8e6cb38e6ab843832a94d1712d661a04d73c517d6a1931a9e5d\")\n      dup2\n      jump\n        /* \"devilwears-staking.sol\":5895:6104  function availableRewards(address _staker) public view returns (uint256) {... */\n    tag_11:\n      tag_47\n      tag_48\n      calldatasize\n      0x04\n      tag_22\n      jump\t// in\n    tag_48:\n      tag_49\n      jump\t// in\n    tag_47:\n      mload(0x40)\n        /* \"#utility.yul\":2649:2674   */\n      swap1\n      dup2\n      mstore\n        /* \"#utility.yul\":2637:2639   */\n      0x20\n        /* \"#utility.yul\":2622:2640   */\n      add\n        /* \"devilwears-staking.sol\":5895:6104  function availableRewards(address _staker) public view returns (uint256) {... */\n      tag_24\n        /* \"#utility.yul\":2503:2680   */\n      jump\n        /* \"devilwears-staking.sol\":3477:5266  function withdraw(uint256 _tokenId) external nonReentrant {... */\n    tag_17:\n        /* \"@openzeppelin/contracts/security/ReentrancyGuard.sol\":1744:1745   */\n      0x02\n        /* \"@openzeppelin/contracts/security/ReentrancyGuard.sol\":2325:2332   */\n      sload(0x00)\n        /* \"@openzeppelin/contracts/security/ReentrancyGuard.sol\":2325:2344   */\n      sub\n        /* \"@openzeppelin/contracts/security/ReentrancyGuard.sol\":2317:2380   */\n      tag_53\n      jumpi\n      mload(0x40)\n      shl(0xe5, 0x461bcd)\n      dup2\n      mstore\n        /* \"#utility.yul\":2887:2889   */\n      0x20\n        /* \"@openzeppelin/contracts/security/ReentrancyGuard.sol\":2317:2380   */\n      0x04\n      dup3\n      add\n        /* \"#utility.yul\":2869:2890   */\n      mstore\n        /* \"#utility.yul\":2926:2928   */\n      0x1f\n        /* \"#utility.yul\":2906:2924   */\n      0x24\n      dup3\n      add\n        /* \"#utility.yul\":2899:2929   */\n      mstore\n        /* \"#utility.yul\":2965:2998   */\n      0x5265656e7472616e637947756172643a207265656e7472616e742063616c6c00\n        /* \"#utility.yul\":2945:2963   */\n      0x44\n      dup3\n      add\n        /* \"#utility.yul\":2938:2999   */\n      mstore\n        /* \"#utility.yul\":3016:3034   */\n      0x64\n      add\n        /* \"@openzeppelin/contracts/security/ReentrancyGuard.sol\":2317:2380   */\n    tag_54:\n      mload(0x40)\n      dup1\n      swap2\n      sub\n      swap1\n      revert\n    tag_53:\n        /* \"@openzeppelin/contracts/security/ReentrancyGuard.sol\":1744:1745   */\n      0x02\n        /* \"@openzeppelin/contracts/security/ReentrancyGuard.sol\":2455:2462   */\n      0x00\n        /* \"@openzeppelin/contracts/security/ReentrancyGuard.sol\":2455:2473   */\n      dup2\n      dup2\n      sstore\n        /* \"devilwears-staking.sol\":3656:3666  msg.sender */\n      caller\n        /* \"devilwears-staking.sol\":3648:3667  stakers[msg.sender] */\n      dup2\n      mstore\n      0x20\n      swap2\n      swap1\n      swap2\n      mstore\n      0x40\n      swap1\n      keccak256\n        /* \"devilwears-staking.sol\":3648:3680  stakers[msg.sender].amountStaked */\n      sload\n        /* \"devilwears-staking.sol\":3626:3737  require(... */\n      tag_57\n      jumpi\n      mload(0x40)\n      shl(0xe5, 0x461bcd)\n      dup2\n      mstore\n        /* \"#utility.yul\":3247:3249   */\n      0x20\n        /* \"devilwears-staking.sol\":3626:3737  require(... */\n      0x04\n      dup3\n      add\n        /* \"#utility.yul\":3229:3250   */\n      mstore\n        /* \"#utility.yul\":3286:3288   */\n      0x19\n        /* \"#utility.yul\":3266:3284   */\n      0x24\n      dup3\n      add\n        /* \"#utility.yul\":3259:3289   */\n      mstore\n        /* \"#utility.yul\":3325:3352   */\n      0x596f752068617665206e6f20646576696c73207374616b656400000000000000\n        /* \"#utility.yul\":3305:3323   */\n      0x44\n      dup3\n      add\n        /* \"#utility.yul\":3298:3353   */\n      mstore\n        /* \"#utility.yul\":3370:3388   */\n      0x64\n      add\n        /* \"devilwears-staking.sol\":3626:3737  require(... */\n      tag_54\n        /* \"#utility.yul\":3045:3394   */\n      jump\n        /* \"devilwears-staking.sol\":3626:3737  require(... */\n    tag_57:\n        /* \"devilwears-staking.sol\":3832:3855  stakerAddress[_tokenId] */\n      0x00\n      dup2\n      dup2\n      mstore\n        /* \"devilwears-staking.sol\":3832:3845  stakerAddress */\n      0x03\n        /* \"devilwears-staking.sol\":3832:3855  stakerAddress[_tokenId] */\n      0x20\n      mstore\n      0x40\n      swap1\n      keccak256\n      sload\n      sub(shl(0xa0, 0x01), 0x01)\n      and\n        /* \"devilwears-staking.sol\":3859:3869  msg.sender */\n      caller\n        /* \"devilwears-staking.sol\":3832:3869  stakerAddress[_tokenId] == msg.sender */\n      eq\n        /* \"devilwears-staking.sol\":3824:3898  require(stakerAddress[_tokenId] == msg.sender, \"You don't own any devils\") */\n      tag_60\n      jumpi\n      mload(0x40)\n      shl(0xe5, 0x461bcd)\n      dup2\n      mstore\n        /* \"#utility.yul\":3601:3603   */\n      0x20\n        /* \"devilwears-staking.sol\":3824:3898  require(stakerAddress[_tokenId] == msg.sender, \"You don't own any devils\") */\n      0x04\n      dup3\n      add\n        /* \"#utility.yul\":3583:3604   */\n      mstore\n        /* \"#utility.yul\":3640:3642   */\n      0x18\n        /* \"#utility.yul\":3620:3638   */\n      0x24\n      dup3\n      add\n        /* \"#utility.yul\":3613:3643   */\n      mstore\n        /* \"#utility.yul\":3679:3705   */\n      0x596f7520646f6e2774206f776e20616e7920646576696c730000000000000000\n        /* \"#utility.yul\":3659:3677   */\n      0x44\n      dup3\n      add\n        /* \"#utility.yul\":3652:3706   */\n      mstore\n        /* \"#utility.yul\":3723:3741   */\n      0x64\n      add\n        /* \"devilwears-staking.sol\":3824:3898  require(stakerAddress[_tokenId] == msg.sender, \"You don't own any devils\") */\n      tag_54\n        /* \"#utility.yul\":3399:3747   */\n      jump\n        /* \"devilwears-staking.sol\":3824:3898  require(stakerAddress[_tokenId] == msg.sender, \"You don't own any devils\") */\n    tag_60:\n        /* \"devilwears-staking.sol\":4010:4025  uint256 rewards */\n      0x00\n        /* \"devilwears-staking.sol\":4028:4056  calculateRewards(msg.sender) */\n      tag_63\n        /* \"devilwears-staking.sol\":4045:4055  msg.sender */\n      caller\n        /* \"devilwears-staking.sol\":4028:4044  calculateRewards */\n      tag_64\n        /* \"devilwears-staking.sol\":4028:4056  calculateRewards(msg.sender) */\n      jump\t// in\n    tag_63:\n        /* \"devilwears-staking.sol\":4075:4085  msg.sender */\n      caller\n        /* \"devilwears-staking.sol\":4067:4086  stakers[msg.sender] */\n      0x00\n      swap1\n      dup2\n      mstore\n        /* \"devilwears-staking.sol\":4067:4074  stakers */\n      0x02\n        /* \"devilwears-staking.sol\":4067:4086  stakers[msg.sender] */\n      0x20\n      mstore\n      0x40\n      dup2\n      keccak256\n        /* \"devilwears-staking.sol\":4067:4103  stakers[msg.sender].unclaimedRewards */\n      0x03\n      add\n        /* \"devilwears-staking.sol\":4067:4114  stakers[msg.sender].unclaimedRewards += rewards */\n      dup1\n      sload\n        /* \"devilwears-staking.sol\":4010:4056  uint256 rewards = calculateRewards(msg.sender) */\n      swap3\n      swap4\n      pop\n      dup4\n      swap3\n        /* \"devilwears-staking.sol\":4067:4103  stakers[msg.sender].unclaimedRewards */\n      swap1\n      swap2\n        /* \"devilwears-staking.sol\":4067:4086  stakers[msg.sender] */\n      swap1\n        /* \"devilwears-staking.sol\":4067:4114  stakers[msg.sender].unclaimedRewards += rewards */\n      tag_65\n      swap1\n        /* \"devilwears-staking.sol\":4010:4056  uint256 rewards = calculateRewards(msg.sender) */\n      dup5\n      swap1\n        /* \"devilwears-staking.sol\":4067:4114  stakers[msg.sender].unclaimedRewards += rewards */\n      tag_66\n      jump\t// in\n    tag_65:\n      swap1\n      swap2\n      sstore\n      pop\n        /* \"devilwears-staking.sol\":4197:4210  uint256 index */\n      0x00\n      swap1\n      pop\n      dup1\n        /* \"devilwears-staking.sol\":4225:4578  for (uint256 i = 0; i < stakers[msg.sender].stakedTokens.length; i++) {... */\n    tag_67:\n        /* \"devilwears-staking.sol\":4257:4267  msg.sender */\n      caller\n        /* \"devilwears-staking.sol\":4249:4268  stakers[msg.sender] */\n      0x00\n      swap1\n      dup2\n      mstore\n        /* \"devilwears-staking.sol\":4249:4256  stakers */\n      0x02\n        /* \"devilwears-staking.sol\":4249:4268  stakers[msg.sender] */\n      0x20\n      mstore\n      0x40\n      swap1\n      keccak256\n        /* \"devilwears-staking.sol\":4249:4281  stakers[msg.sender].stakedTokens */\n      0x01\n      add\n        /* \"devilwears-staking.sol\":4249:4288  stakers[msg.sender].stakedTokens.length */\n      sload\n        /* \"devilwears-staking.sol\":4245:4288  i < stakers[msg.sender].stakedTokens.length */\n      dup2\n      lt\n        /* \"devilwears-staking.sol\":4225:4578  for (uint256 i = 0; i < stakers[msg.sender].stakedTokens.length; i++) {... */\n      iszero\n      tag_68\n      jumpi\n        /* \"devilwears-staking.sol\":4340:4350  msg.sender */\n      caller\n        /* \"devilwears-staking.sol\":4332:4351  stakers[msg.sender] */\n      0x00\n      swap1\n      dup2\n      mstore\n        /* \"devilwears-staking.sol\":4332:4339  stakers */\n      0x02\n        /* \"devilwears-staking.sol\":4332:4351  stakers[msg.sender] */\n      0x20\n      mstore\n      0x40\n      swap1\n      keccak256\n        /* \"devilwears-staking.sol\":4332:4364  stakers[msg.sender].stakedTokens */\n      0x01\n      add\n        /* \"devilwears-staking.sol\":4332:4367  stakers[msg.sender].stakedTokens[i] */\n      dup1\n      sload\n        /* \"devilwears-staking.sol\":4379:4387  _tokenId */\n      dup6\n      swap2\n        /* \"devilwears-staking.sol\":4332:4364  stakers[msg.sender].stakedTokens */\n      swap1\n        /* \"devilwears-staking.sol\":4365:4366  i */\n      dup4\n      swap1\n        /* \"devilwears-staking.sol\":4332:4367  stakers[msg.sender].stakedTokens[i] */\n      dup2\n      lt\n      tag_71\n      jumpi\n      tag_71\n      tag_72\n      jump\t// in\n    tag_71:\n      swap1\n      0x00\n      mstore\n      keccak256(0x00, 0x20)\n      swap1\n      0x02\n      mul\n      add\n        /* \"devilwears-staking.sol\":4332:4375  stakers[msg.sender].stakedTokens[i].tokenId */\n      0x01\n      add\n      sload\n        /* \"devilwears-staking.sol\":4332:4387  stakers[msg.sender].stakedTokens[i].tokenId == _tokenId */\n      eq\n        /* \"devilwears-staking.sol\":4332:4483  stakers[msg.sender].stakedTokens[i].tokenId == _tokenId ... */\n      dup1\n      iszero\n      tag_74\n      jumpi\n      pop\n        /* \"devilwears-staking.sol\":4435:4445  msg.sender */\n      caller\n        /* \"devilwears-staking.sol\":4481:4482  0 */\n      0x00\n        /* \"devilwears-staking.sol\":4427:4446  stakers[msg.sender] */\n      swap1\n      dup2\n      mstore\n        /* \"devilwears-staking.sol\":4427:4434  stakers */\n      0x02\n        /* \"devilwears-staking.sol\":4427:4446  stakers[msg.sender] */\n      0x20\n      mstore\n      0x40\n      dup2\n      keccak256\n        /* \"devilwears-staking.sol\":4427:4459  stakers[msg.sender].stakedTokens */\n      0x01\n      add\n        /* \"devilwears-staking.sol\":4427:4462  stakers[msg.sender].stakedTokens[i] */\n      dup1\n      sload\n        /* \"devilwears-staking.sol\":4460:4461  i */\n      dup4\n      swap1\n        /* \"devilwears-staking.sol\":4427:4462  stakers[msg.sender].stakedTokens[i] */\n      dup2\n      lt\n      tag_76\n      jumpi\n      tag_76\n      tag_72\n      jump\t// in\n    tag_76:\n      0x00\n      swap2\n      dup3\n      mstore\n      0x20\n      swap1\n      swap2\n      keccak256\n      0x02\n      swap1\n      swap2\n      mul\n      add\n        /* \"devilwears-staking.sol\":4427:4469  stakers[msg.sender].stakedTokens[i].staker */\n      sload\n      sub(shl(0xa0, 0x01), 0x01)\n      and\n        /* \"devilwears-staking.sol\":4427:4483  stakers[msg.sender].stakedTokens[i].staker != address(0) */\n      eq\n      iszero\n        /* \"devilwears-staking.sol\":4332:4483  stakers[msg.sender].stakedTokens[i].tokenId == _tokenId ... */\n    tag_74:\n        /* \"devilwears-staking.sol\":4310:4567  if (... */\n      iszero\n      tag_78\n      jumpi\n        /* \"devilwears-staking.sol\":4526:4527  i */\n      dup1\n        /* \"devilwears-staking.sol\":4518:4527  index = i */\n      swap2\n      pop\n        /* \"devilwears-staking.sol\":4546:4551  break */\n      jump(tag_68)\n        /* \"devilwears-staking.sol\":4310:4567  if (... */\n    tag_78:\n        /* \"devilwears-staking.sol\":4290:4293  i++ */\n      dup1\n      tag_79\n      dup2\n      tag_80\n      jump\t// in\n    tag_79:\n      swap2\n      pop\n      pop\n        /* \"devilwears-staking.sol\":4225:4578  for (uint256 i = 0; i < stakers[msg.sender].stakedTokens.length; i++) {... */\n      jump(tag_67)\n    tag_68:\n      pop\n        /* \"devilwears-staking.sol\":4682:4692  msg.sender */\n      caller\n        /* \"devilwears-staking.sol\":4731:4732  0 */\n      0x00\n        /* \"devilwears-staking.sol\":4674:4693  stakers[msg.sender] */\n      swap1\n      dup2\n      mstore\n        /* \"devilwears-staking.sol\":4674:4681  stakers */\n      0x02\n        /* \"devilwears-staking.sol\":4674:4693  stakers[msg.sender] */\n      0x20\n      mstore\n      0x40\n      dup2\n      keccak256\n        /* \"devilwears-staking.sol\":4674:4706  stakers[msg.sender].stakedTokens */\n      0x01\n      add\n        /* \"devilwears-staking.sol\":4674:4713  stakers[msg.sender].stakedTokens[index] */\n      dup1\n      sload\n        /* \"devilwears-staking.sol\":4707:4712  index */\n      dup4\n      swap1\n        /* \"devilwears-staking.sol\":4674:4713  stakers[msg.sender].stakedTokens[index] */\n      dup2\n      lt\n      tag_82\n      jumpi\n      tag_82\n      tag_72\n      jump\t// in\n    tag_82:\n      0x00\n      swap2\n      dup3\n      mstore\n      0x20\n      dup1\n      dup4\n      keccak256\n      0x02\n      swap3\n      dup4\n      mul\n      add\n        /* \"devilwears-staking.sol\":4674:4733  stakers[msg.sender].stakedTokens[index].staker = address(0) */\n      dup1\n      sload\n      not(sub(shl(0xa0, 0x01), 0x01))\n      and\n      sub(shl(0xa0, 0x01), 0x01)\n      swap6\n      swap1\n      swap6\n      and\n      swap5\n      swap1\n      swap5\n      or\n      swap1\n      swap4\n      sstore\n        /* \"devilwears-staking.sol\":4810:4820  msg.sender */\n      caller\n        /* \"devilwears-staking.sol\":4802:4821  stakers[msg.sender] */\n      dup3\n      mstore\n      swap1\n      swap2\n      mstore\n      0x40\n      dup2\n      keccak256\n        /* \"devilwears-staking.sol\":4802:4836  stakers[msg.sender].amountStaked-- */\n      dup1\n      sload\n      swap2\n      tag_84\n      dup4\n      tag_85\n      jump\t// in\n    tag_84:\n      swap1\n      swap2\n      sstore\n      pop\n      pop\n        /* \"devilwears-staking.sol\":4997:4998  0 */\n      0x00\n        /* \"devilwears-staking.sol\":4963:4986  stakerAddress[_tokenId] */\n      dup4\n      dup2\n      mstore\n        /* \"devilwears-staking.sol\":4963:4976  stakerAddress */\n      0x03\n        /* \"devilwears-staking.sol\":4963:4986  stakerAddress[_tokenId] */\n      0x20\n      mstore\n      0x40\n      swap1\n      dup2\n      swap1\n      keccak256\n        /* \"devilwears-staking.sol\":4963:4999  stakerAddress[_tokenId] = address(0) */\n      dup1\n      sload\n      not(sub(shl(0xa0, 0x01), 0x01))\n      and\n      swap1\n      sstore\n        /* \"devilwears-staking.sol\":5066:5129  nftCollection.transferFrom(address(this), msg.sender, _tokenId) */\n      mload\n      shl(0xe0, 0x23b872dd)\n      dup2\n      mstore\n        /* \"devilwears-staking.sol\":5101:5105  this */\n      address\n        /* \"devilwears-staking.sol\":5066:5129  nftCollection.transferFrom(address(this), msg.sender, _tokenId) */\n      0x04\n      dup3\n      add\n        /* \"#utility.yul\":4693:4727   */\n      mstore\n        /* \"devilwears-staking.sol\":5108:5118  msg.sender */\n      caller\n        /* \"#utility.yul\":4743:4761   */\n      0x24\n      dup3\n      add\n        /* \"#utility.yul\":4736:4779   */\n      mstore\n        /* \"#utility.yul\":4795:4813   */\n      0x44\n      dup2\n      add\n        /* \"#utility.yul\":4788:4822   */\n      dup5\n      swap1\n      mstore\n      sub(shl(0xa0, 0x01), 0x01)\n        /* \"devilwears-staking.sol\":5066:5079  nftCollection */\n      immutable(\"0x8e8fab5f003314da8d1873ea7720e8d9f47650136d916064d1edb8a11d682624\")\n        /* \"devilwears-staking.sol\":5066:5092  nftCollection.transferFrom */\n      and\n      swap1\n      0x23b872dd\n      swap1\n        /* \"#utility.yul\":4605:4623   */\n      0x64\n      add\n        /* \"devilwears-staking.sol\":5066:5129  nftCollection.transferFrom(address(this), msg.sender, _tokenId) */\n      0x00\n      mload(0x40)\n      dup1\n      dup4\n      sub\n      dup2\n      0x00\n      dup8\n      dup1\n      extcodesize\n      iszero\n      dup1\n      iszero\n      tag_88\n      jumpi\n      0x00\n      dup1\n      revert\n    tag_88:\n      pop\n      gas\n      call\n      iszero\n      dup1\n      iszero\n      tag_90\n      jumpi\n      returndatasize\n      0x00\n      dup1\n      returndatacopy\n      revert(0x00, returndatasize)\n    tag_90:\n      pop\n      pop\n        /* \"devilwears-staking.sol\":5212:5222  msg.sender */\n      caller\n        /* \"devilwears-staking.sol\":5204:5223  stakers[msg.sender] */\n      0x00\n      swap1\n      dup2\n      mstore\n        /* \"devilwears-staking.sol\":5204:5211  stakers */\n      0x02\n        /* \"devilwears-staking.sol\":5204:5223  stakers[msg.sender] */\n      0x20\n      dup2\n      swap1\n      mstore\n      0x40\n      dup3\n      keccak256\n        /* \"devilwears-staking.sol\":5243:5258  block.timestamp */\n      timestamp\n        /* \"devilwears-staking.sol\":5204:5240  stakers[msg.sender].timeOfLastUpdate */\n      swap2\n      add\n        /* \"devilwears-staking.sol\":5204:5258  stakers[msg.sender].timeOfLastUpdate = block.timestamp */\n      sstore\n        /* \"@openzeppelin/contracts/security/ReentrancyGuard.sol\":1701:1702   */\n      0x01\n        /* \"@openzeppelin/contracts/security/ReentrancyGuard.sol\":2628:2650   */\n      swap1\n      sstore\n      pop\n      pop\n      pop\n      pop\n      pop\n        /* \"devilwears-staking.sol\":3477:5266  function withdraw(uint256 _tokenId) external nonReentrant {... */\n      jump\t// out\n        /* \"devilwears-staking.sol\":5449:5835  function claimRewards() external {... */\n    tag_19:\n        /* \"devilwears-staking.sol\":5563:5573  msg.sender */\n      caller\n        /* \"devilwears-staking.sol\":5493:5508  uint256 rewards */\n      0x00\n        /* \"devilwears-staking.sol\":5555:5574  stakers[msg.sender] */\n      dup2\n      dup2\n      mstore\n        /* \"devilwears-staking.sol\":5555:5562  stakers */\n      0x02\n        /* \"devilwears-staking.sol\":5555:5574  stakers[msg.sender] */\n      0x20\n      mstore\n      0x40\n      dup2\n      keccak256\n        /* \"devilwears-staking.sol\":5555:5591  stakers[msg.sender].unclaimedRewards */\n      0x03\n      add\n      sload\n        /* \"devilwears-staking.sol\":5493:5508  uint256 rewards */\n      swap1\n      swap2\n        /* \"devilwears-staking.sol\":5511:5539  calculateRewards(msg.sender) */\n      tag_92\n      swap1\n        /* \"devilwears-staking.sol\":5511:5527  calculateRewards */\n      tag_64\n        /* \"devilwears-staking.sol\":5511:5539  calculateRewards(msg.sender) */\n      jump\t// in\n    tag_92:\n        /* \"devilwears-staking.sol\":5511:5591  calculateRewards(msg.sender) +... */\n      tag_93\n      swap2\n      swap1\n      tag_66\n      jump\t// in\n    tag_93:\n        /* \"devilwears-staking.sol\":5493:5591  uint256 rewards = calculateRewards(msg.sender) +... */\n      swap1\n      pop\n        /* \"devilwears-staking.sol\":5620:5621  0 */\n      0x00\n        /* \"devilwears-staking.sol\":5610:5617  rewards */\n      dup2\n        /* \"devilwears-staking.sol\":5610:5621  rewards > 0 */\n      gt\n        /* \"devilwears-staking.sol\":5602:5654  require(rewards > 0, \"You have no rewards to claim\") */\n      tag_94\n      jumpi\n      mload(0x40)\n      shl(0xe5, 0x461bcd)\n      dup2\n      mstore\n        /* \"#utility.yul\":5035:5037   */\n      0x20\n        /* \"devilwears-staking.sol\":5602:5654  require(rewards > 0, \"You have no rewards to claim\") */\n      0x04\n      dup3\n      add\n        /* \"#utility.yul\":5017:5038   */\n      mstore\n        /* \"#utility.yul\":5074:5076   */\n      0x1c\n        /* \"#utility.yul\":5054:5072   */\n      0x24\n      dup3\n      add\n        /* \"#utility.yul\":5047:5077   */\n      mstore\n        /* \"#utility.yul\":5113:5143   */\n      0x596f752068617665206e6f207265776172647320746f20636c61696d00000000\n        /* \"#utility.yul\":5093:5111   */\n      0x44\n      dup3\n      add\n        /* \"#utility.yul\":5086:5144   */\n      mstore\n        /* \"#utility.yul\":5161:5179   */\n      0x64\n      add\n        /* \"devilwears-staking.sol\":5602:5654  require(rewards > 0, \"You have no rewards to claim\") */\n      tag_54\n        /* \"#utility.yul\":4833:5185   */\n      jump\n        /* \"devilwears-staking.sol\":5602:5654  require(rewards > 0, \"You have no rewards to claim\") */\n    tag_94:\n        /* \"devilwears-staking.sol\":5673:5683  msg.sender */\n      caller\n        /* \"devilwears-staking.sol\":5665:5684  stakers[msg.sender] */\n      0x00\n      dup2\n      dup2\n      mstore\n        /* \"devilwears-staking.sol\":5665:5672  stakers */\n      0x02\n        /* \"devilwears-staking.sol\":5665:5684  stakers[msg.sender] */\n      0x20\n      dup2\n      swap1\n      mstore\n      0x40\n      dup3\n      keccak256\n        /* \"devilwears-staking.sol\":5704:5719  block.timestamp */\n      timestamp\n        /* \"devilwears-staking.sol\":5665:5701  stakers[msg.sender].timeOfLastUpdate */\n      swap2\n      dup2\n      add\n        /* \"devilwears-staking.sol\":5665:5719  stakers[msg.sender].timeOfLastUpdate = block.timestamp */\n      swap2\n      swap1\n      swap2\n      sstore\n        /* \"devilwears-staking.sol\":5730:5766  stakers[msg.sender].unclaimedRewards */\n      0x03\n      add\n        /* \"devilwears-staking.sol\":5730:5770  stakers[msg.sender].unclaimedRewards = 0 */\n      sstore\n        /* \"devilwears-staking.sol\":5781:5827  rewardsToken.safeTransfer(msg.sender, rewards) */\n      tag_97\n      swap1\n        /* \"devilwears-staking.sol\":5781:5793  rewardsToken */\n      immutable(\"0x5c4c6aa067b6f8e6cb38e6ab843832a94d1712d661a04d73c517d6a1931a9e5d\")\n      sub(shl(0xa0, 0x01), 0x01)\n        /* \"devilwears-staking.sol\":5781:5806  rewardsToken.safeTransfer */\n      and\n      swap1\n        /* \"devilwears-staking.sol\":5819:5826  rewards */\n      dup4\n        /* \"devilwears-staking.sol\":5781:5806  rewardsToken.safeTransfer */\n      tag_98\n        /* \"devilwears-staking.sol\":5781:5827  rewardsToken.safeTransfer(msg.sender, rewards) */\n      jump\t// in\n    tag_97:\n        /* \"devilwears-staking.sol\":5482:5835  {... */\n      pop\n        /* \"devilwears-staking.sol\":5449:5835  function claimRewards() external {... */\n      jump\t// out\n        /* \"devilwears-staking.sol\":6112:6985  function getStakedTokens(address _user) public view returns (StakedToken[] memory) {... */\n    tag_23:\n      sub(shl(0xa0, 0x01), 0x01)\n        /* \"devilwears-staking.sol\":6249:6263  stakers[_user] */\n      dup2\n      and\n        /* \"devilwears-staking.sol\":6279:6280  0 */\n      0x00\n        /* \"devilwears-staking.sol\":6249:6263  stakers[_user] */\n      swap1\n      dup2\n      mstore\n        /* \"devilwears-staking.sol\":6249:6256  stakers */\n      0x02\n        /* \"devilwears-staking.sol\":6249:6263  stakers[_user] */\n      0x20\n      mstore\n      0x40\n      swap1\n      keccak256\n        /* \"devilwears-staking.sol\":6249:6276  stakers[_user].amountStaked */\n      sload\n        /* \"devilwears-staking.sol\":6173:6193  StakedToken[] memory */\n      0x60\n      swap1\n        /* \"devilwears-staking.sol\":6249:6280  stakers[_user].amountStaked > 0 */\n      iszero\n        /* \"devilwears-staking.sol\":6245:6978  if (stakers[_user].amountStaked > 0) {... */\n      tag_100\n      jumpi\n      sub(shl(0xa0, 0x01), 0x01)\n        /* \"devilwears-staking.sol\":6445:6459  stakers[_user] */\n      dup3\n      and\n        /* \"devilwears-staking.sol\":6390:6424  StakedToken[] memory _stakedTokens */\n      0x00\n        /* \"devilwears-staking.sol\":6445:6459  stakers[_user] */\n      swap1\n      dup2\n      mstore\n        /* \"devilwears-staking.sol\":6445:6452  stakers */\n      0x02\n        /* \"devilwears-staking.sol\":6445:6459  stakers[_user] */\n      0x20\n      mstore\n      0x40\n      dup2\n      keccak256\n        /* \"devilwears-staking.sol\":6445:6472  stakers[_user].amountStaked */\n      sload\n        /* \"devilwears-staking.sol\":6427:6473  new StakedToken[](stakers[_user].amountStaked) */\n      0xffffffffffffffff\n      dup2\n      gt\n      iszero\n      tag_102\n      jumpi\n      tag_102\n      tag_103\n      jump\t// in\n    tag_102:\n      mload(0x40)\n      swap1\n      dup1\n      dup3\n      mstore\n      dup1\n      0x20\n      mul\n      0x20\n      add\n      dup3\n      add\n      0x40\n      mstore\n      dup1\n      iszero\n      tag_104\n      jumpi\n      dup2\n      0x20\n      add\n    tag_105:\n      0x40\n      dup1\n      mload\n      dup1\n      dup3\n      add\n      swap1\n      swap2\n      mstore\n      0x00\n      dup1\n      dup3\n      mstore\n      0x20\n      dup3\n      add\n      mstore\n      dup2\n      mstore\n      0x20\n      add\n      swap1\n      0x01\n      swap1\n      sub\n      swap1\n      dup2\n      tag_105\n      jumpi\n      swap1\n      pop\n    tag_104:\n      pop\n        /* \"devilwears-staking.sol\":6390:6473  StakedToken[] memory _stakedTokens = new StakedToken[](stakers[_user].amountStaked) */\n      swap1\n      pop\n        /* \"devilwears-staking.sol\":6488:6502  uint256 _index */\n      0x00\n        /* \"devilwears-staking.sol\":6528:6537  uint256 j */\n      dup1\n        /* \"devilwears-staking.sol\":6523:6809  for (uint256 j = 0; j < stakers[_user].stakedTokens.length; j++) {... */\n    tag_108:\n      sub(shl(0xa0, 0x01), 0x01)\n        /* \"devilwears-staking.sol\":6547:6561  stakers[_user] */\n      dup6\n      and\n      0x00\n      swap1\n      dup2\n      mstore\n        /* \"devilwears-staking.sol\":6547:6554  stakers */\n      0x02\n        /* \"devilwears-staking.sol\":6547:6561  stakers[_user] */\n      0x20\n      mstore\n      0x40\n      swap1\n      keccak256\n        /* \"devilwears-staking.sol\":6547:6574  stakers[_user].stakedTokens */\n      0x01\n      add\n        /* \"devilwears-staking.sol\":6547:6581  stakers[_user].stakedTokens.length */\n      sload\n        /* \"devilwears-staking.sol\":6543:6581  j < stakers[_user].stakedTokens.length */\n      dup2\n      lt\n        /* \"devilwears-staking.sol\":6523:6809  for (uint256 j = 0; j < stakers[_user].stakedTokens.length; j++) {... */\n      iszero\n      tag_109\n      jumpi\n      sub(shl(0xa0, 0x01), 0x01)\n        /* \"devilwears-staking.sol\":6611:6625  stakers[_user] */\n      dup6\n      and\n        /* \"devilwears-staking.sol\":6661:6662  0 */\n      0x00\n        /* \"devilwears-staking.sol\":6611:6625  stakers[_user] */\n      swap1\n      dup2\n      mstore\n        /* \"devilwears-staking.sol\":6611:6618  stakers */\n      0x02\n        /* \"devilwears-staking.sol\":6611:6625  stakers[_user] */\n      0x20\n      mstore\n      0x40\n      dup2\n      keccak256\n        /* \"devilwears-staking.sol\":6611:6638  stakers[_user].stakedTokens */\n      0x01\n      add\n        /* \"devilwears-staking.sol\":6611:6641  stakers[_user].stakedTokens[j] */\n      dup1\n      sload\n        /* \"devilwears-staking.sol\":6639:6640  j */\n      dup4\n      swap1\n        /* \"devilwears-staking.sol\":6611:6641  stakers[_user].stakedTokens[j] */\n      dup2\n      lt\n      tag_112\n      jumpi\n      tag_112\n      tag_72\n      jump\t// in\n    tag_112:\n      0x00\n      swap2\n      dup3\n      mstore\n      0x20\n      swap1\n      swap2\n      keccak256\n      0x02\n      swap1\n      swap2\n      mul\n      add\n        /* \"devilwears-staking.sol\":6611:6648  stakers[_user].stakedTokens[j].staker */\n      sload\n      sub(shl(0xa0, 0x01), 0x01)\n      and\n        /* \"devilwears-staking.sol\":6611:6664  stakers[_user].stakedTokens[j].staker != (address(0)) */\n      eq\n        /* \"devilwears-staking.sol\":6607:6794  if (stakers[_user].stakedTokens[j].staker != (address(0))) {... */\n      tag_114\n      jumpi\n      sub(shl(0xa0, 0x01), 0x01)\n        /* \"devilwears-staking.sol\":6713:6727  stakers[_user] */\n      dup6\n      and\n      0x00\n      swap1\n      dup2\n      mstore\n        /* \"devilwears-staking.sol\":6713:6720  stakers */\n      0x02\n        /* \"devilwears-staking.sol\":6713:6727  stakers[_user] */\n      0x20\n      mstore\n      0x40\n      swap1\n      keccak256\n        /* \"devilwears-staking.sol\":6713:6740  stakers[_user].stakedTokens */\n      0x01\n      add\n        /* \"devilwears-staking.sol\":6713:6743  stakers[_user].stakedTokens[j] */\n      dup1\n      sload\n        /* \"devilwears-staking.sol\":6741:6742  j */\n      dup3\n      swap1\n        /* \"devilwears-staking.sol\":6713:6743  stakers[_user].stakedTokens[j] */\n      dup2\n      lt\n      tag_116\n      jumpi\n      tag_116\n      tag_72\n      jump\t// in\n    tag_116:\n      0x00\n      swap2\n      dup3\n      mstore\n      0x20\n      swap2\n      dup3\n      swap1\n      keccak256\n        /* \"devilwears-staking.sol\":6689:6743  _stakedTokens[_index] = stakers[_user].stakedTokens[j] */\n      0x40\n      dup1\n      mload\n      dup1\n      dup3\n      add\n      swap1\n      swap2\n      mstore\n        /* \"devilwears-staking.sol\":6713:6743  stakers[_user].stakedTokens[j] */\n      0x02\n      swap1\n      swap3\n      mul\n      add\n        /* \"devilwears-staking.sol\":6689:6743  _stakedTokens[_index] = stakers[_user].stakedTokens[j] */\n      dup1\n      sload\n      sub(shl(0xa0, 0x01), 0x01)\n      and\n      dup3\n      mstore\n      0x01\n      add\n      sload\n      swap2\n      dup2\n      add\n      swap2\n      swap1\n      swap2\n      mstore\n        /* \"devilwears-staking.sol\":6689:6710  _stakedTokens[_index] */\n      dup4\n      mload\n        /* \"devilwears-staking.sol\":6689:6702  _stakedTokens */\n      dup5\n      swap1\n        /* \"devilwears-staking.sol\":6703:6709  _index */\n      dup5\n      swap1\n        /* \"devilwears-staking.sol\":6689:6710  _stakedTokens[_index] */\n      dup2\n      lt\n      tag_119\n      jumpi\n      tag_119\n      tag_72\n      jump\t// in\n    tag_119:\n      0x20\n      mul\n      0x20\n      add\n      add\n        /* \"devilwears-staking.sol\":6689:6743  _stakedTokens[_index] = stakers[_user].stakedTokens[j] */\n      dup2\n      swap1\n      mstore\n      pop\n        /* \"devilwears-staking.sol\":6766:6774  _index++ */\n      dup2\n      dup1\n      tag_120\n      swap1\n      tag_80\n      jump\t// in\n    tag_120:\n      swap3\n      pop\n      pop\n        /* \"devilwears-staking.sol\":6607:6794  if (stakers[_user].stakedTokens[j].staker != (address(0))) {... */\n    tag_114:\n        /* \"devilwears-staking.sol\":6583:6586  j++ */\n      dup1\n      tag_121\n      dup2\n      tag_80\n      jump\t// in\n    tag_121:\n      swap2\n      pop\n      pop\n        /* \"devilwears-staking.sol\":6523:6809  for (uint256 j = 0; j < stakers[_user].stakedTokens.length; j++) {... */\n      jump(tag_108)\n    tag_109:\n      pop\n        /* \"devilwears-staking.sol\":6832:6845  _stakedTokens */\n      swap1\n      swap4\n        /* \"devilwears-staking.sol\":6112:6985  function getStakedTokens(address _user) public view returns (StakedToken[] memory) {... */\n      swap3\n      pop\n      pop\n      pop\n      jump\t// out\n        /* \"devilwears-staking.sol\":6245:6978  if (stakers[_user].amountStaked > 0) {... */\n    tag_100:\n        /* \"devilwears-staking.sol\":6946:6966  new StakedToken[](0) */\n      0x40\n      dup1\n      mload\n        /* \"devilwears-staking.sol\":6964:6965  0 */\n      0x00\n        /* \"devilwears-staking.sol\":6946:6966  new StakedToken[](0) */\n      dup1\n      dup3\n      mstore\n      0x20\n      dup3\n      add\n      swap1\n      swap3\n      mstore\n      swap1\n      jump(tag_125)\n    tag_126:\n      0x40\n      dup1\n      mload\n      dup1\n      dup3\n      add\n      swap1\n      swap2\n      mstore\n      0x00\n      dup1\n      dup3\n      mstore\n      0x20\n      dup3\n      add\n      mstore\n      dup2\n      mstore\n      0x20\n      add\n      swap1\n      0x01\n      swap1\n      sub\n      swap1\n      dup2\n      tag_126\n      jumpi\n      swap1\n      pop\n    tag_125:\n      pop\n        /* \"devilwears-staking.sol\":6939:6966  return new StakedToken[](0) */\n      swap3\n        /* \"devilwears-staking.sol\":6112:6985  function getStakedTokens(address _user) public view returns (StakedToken[] memory) {... */\n      swap2\n      pop\n      pop\n      jump\t// out\n        /* \"devilwears-staking.sol\":1970:3224  function stake(uint256 _tokenId) external nonReentrant {... */\n    tag_42:\n        /* \"@openzeppelin/contracts/security/ReentrancyGuard.sol\":1744:1745   */\n      0x02\n        /* \"@openzeppelin/contracts/security/ReentrancyGuard.sol\":2325:2332   */\n      sload(0x00)\n        /* \"@openzeppelin/contracts/security/ReentrancyGuard.sol\":2325:2344   */\n      sub\n        /* \"@openzeppelin/contracts/security/ReentrancyGuard.sol\":2317:2380   */\n      tag_129\n      jumpi\n      mload(0x40)\n      shl(0xe5, 0x461bcd)\n      dup2\n      mstore\n        /* \"#utility.yul\":2887:2889   */\n      0x20\n        /* \"@openzeppelin/contracts/security/ReentrancyGuard.sol\":2317:2380   */\n      0x04\n      dup3\n      add\n        /* \"#utility.yul\":2869:2890   */\n      mstore\n        /* \"#utility.yul\":2926:2928   */\n      0x1f\n        /* \"#utility.yul\":2906:2924   */\n      0x24\n      dup3\n      add\n        /* \"#utility.yul\":2899:2929   */\n      mstore\n        /* \"#utility.yul\":2965:2998   */\n      0x5265656e7472616e637947756172643a207265656e7472616e742063616c6c00\n        /* \"#utility.yul\":2945:2963   */\n      0x44\n      dup3\n      add\n        /* \"#utility.yul\":2938:2999   */\n      mstore\n        /* \"#utility.yul\":3016:3034   */\n      0x64\n      add\n        /* \"@openzeppelin/contracts/security/ReentrancyGuard.sol\":2317:2380   */\n      tag_54\n        /* \"#utility.yul\":2685:3040   */\n      jump\n        /* \"@openzeppelin/contracts/security/ReentrancyGuard.sol\":2317:2380   */\n    tag_129:\n        /* \"@openzeppelin/contracts/security/ReentrancyGuard.sol\":1744:1745   */\n      0x02\n        /* \"@openzeppelin/contracts/security/ReentrancyGuard.sol\":2455:2462   */\n      0x00\n        /* \"@openzeppelin/contracts/security/ReentrancyGuard.sol\":2455:2473   */\n      dup2\n      dup2\n      sstore\n        /* \"devilwears-staking.sol\":2139:2149  msg.sender */\n      caller\n        /* \"devilwears-staking.sol\":2131:2150  stakers[msg.sender] */\n      dup2\n      mstore\n      0x20\n      swap2\n      swap1\n      swap2\n      mstore\n      0x40\n      swap1\n      keccak256\n        /* \"devilwears-staking.sol\":2131:2163  stakers[msg.sender].amountStaked */\n      sload\n        /* \"devilwears-staking.sol\":2131:2167  stakers[msg.sender].amountStaked > 0 */\n      iszero\n        /* \"devilwears-staking.sol\":2127:2304  if (stakers[msg.sender].amountStaked > 0) {... */\n      tag_132\n      jumpi\n        /* \"devilwears-staking.sol\":2184:2199  uint256 rewards */\n      0x00\n        /* \"devilwears-staking.sol\":2202:2230  calculateRewards(msg.sender) */\n      tag_133\n        /* \"devilwears-staking.sol\":2219:2229  msg.sender */\n      caller\n        /* \"devilwears-staking.sol\":2202:2218  calculateRewards */\n      tag_64\n        /* \"devilwears-staking.sol\":2202:2230  calculateRewards(msg.sender) */\n      jump\t// in\n    tag_133:\n        /* \"devilwears-staking.sol\":2253:2263  msg.sender */\n      caller\n        /* \"devilwears-staking.sol\":2245:2264  stakers[msg.sender] */\n      0x00\n      swap1\n      dup2\n      mstore\n        /* \"devilwears-staking.sol\":2245:2252  stakers */\n      0x02\n        /* \"devilwears-staking.sol\":2245:2264  stakers[msg.sender] */\n      0x20\n      mstore\n      0x40\n      dup2\n      keccak256\n        /* \"devilwears-staking.sol\":2245:2281  stakers[msg.sender].unclaimedRewards */\n      0x03\n      add\n        /* \"devilwears-staking.sol\":2245:2292  stakers[msg.sender].unclaimedRewards += rewards */\n      dup1\n      sload\n        /* \"devilwears-staking.sol\":2184:2230  uint256 rewards = calculateRewards(msg.sender) */\n      swap3\n      swap4\n      pop\n      dup4\n      swap3\n        /* \"devilwears-staking.sol\":2245:2281  stakers[msg.sender].unclaimedRewards */\n      swap1\n      swap2\n        /* \"devilwears-staking.sol\":2245:2264  stakers[msg.sender] */\n      swap1\n        /* \"devilwears-staking.sol\":2245:2292  stakers[msg.sender].unclaimedRewards += rewards */\n      tag_134\n      swap1\n        /* \"devilwears-staking.sol\":2184:2230  uint256 rewards = calculateRewards(msg.sender) */\n      dup5\n      swap1\n        /* \"devilwears-staking.sol\":2245:2292  stakers[msg.sender].unclaimedRewards += rewards */\n      tag_66\n      jump\t// in\n    tag_134:\n      swap1\n      swap2\n      sstore\n      pop\n      pop\n      pop\n        /* \"devilwears-staking.sol\":2127:2304  if (stakers[msg.sender].amountStaked > 0) {... */\n    tag_132:\n        /* \"devilwears-staking.sol\":2401:2432  nftCollection.ownerOf(_tokenId) */\n      mload(0x40)\n      shl(0xe1, 0x31a9108f)\n      dup2\n      mstore\n      0x04\n      dup2\n      add\n        /* \"#utility.yul\":2649:2674   */\n      dup3\n      swap1\n      mstore\n        /* \"devilwears-staking.sol\":2436:2446  msg.sender */\n      caller\n      swap1\n      sub(shl(0xa0, 0x01), 0x01)\n        /* \"devilwears-staking.sol\":2401:2414  nftCollection */\n      immutable(\"0x8e8fab5f003314da8d1873ea7720e8d9f47650136d916064d1edb8a11d682624\")\n        /* \"devilwears-staking.sol\":2401:2422  nftCollection.ownerOf */\n      and\n      swap1\n      0x6352211e\n      swap1\n        /* \"#utility.yul\":2622:2640   */\n      0x24\n      add\n        /* \"devilwears-staking.sol\":2401:2432  nftCollection.ownerOf(_tokenId) */\n      0x20\n      mload(0x40)\n      dup1\n      dup4\n      sub\n      dup2\n      dup7\n      gas\n      staticcall\n      iszero\n      dup1\n      iszero\n      tag_137\n      jumpi\n      returndatasize\n      0x00\n      dup1\n      returndatacopy\n      revert(0x00, returndatasize)\n    tag_137:\n      pop\n      pop\n      pop\n      pop\n      mload(0x40)\n      returndatasize\n      not(0x1f)\n      0x1f\n      dup3\n      add\n      and\n      dup3\n      add\n      dup1\n      0x40\n      mstore\n      pop\n      dup2\n      add\n      swap1\n      tag_138\n      swap2\n      swap1\n      tag_139\n      jump\t// in\n    tag_138:\n      sub(shl(0xa0, 0x01), 0x01)\n        /* \"devilwears-staking.sol\":2401:2446  nftCollection.ownerOf(_tokenId) == msg.sender */\n      and\n      eq\n        /* \"devilwears-staking.sol\":2379:2499  require(... */\n      tag_140\n      jumpi\n      mload(0x40)\n      shl(0xe5, 0x461bcd)\n      dup2\n      mstore\n        /* \"#utility.yul\":5780:5782   */\n      0x20\n        /* \"devilwears-staking.sol\":2379:2499  require(... */\n      0x04\n      dup3\n      add\n        /* \"#utility.yul\":5762:5783   */\n      mstore\n        /* \"#utility.yul\":5819:5821   */\n      0x19\n        /* \"#utility.yul\":5799:5817   */\n      0x24\n      dup3\n      add\n        /* \"#utility.yul\":5792:5822   */\n      mstore\n        /* \"#utility.yul\":5858:5885   */\n      0x596f7520646f6e2774206f776e20616e7920646576696c732100000000000000\n        /* \"#utility.yul\":5838:5856   */\n      0x44\n      dup3\n      add\n        /* \"#utility.yul\":5831:5886   */\n      mstore\n        /* \"#utility.yul\":5903:5921   */\n      0x64\n      add\n        /* \"devilwears-staking.sol\":2379:2499  require(... */\n      tag_54\n        /* \"#utility.yul\":5578:5927   */\n      jump\n        /* \"devilwears-staking.sol\":2379:2499  require(... */\n    tag_140:\n        /* \"devilwears-staking.sol\":2581:2644  nftCollection.transferFrom(msg.sender, address(this), _tokenId) */\n      mload(0x40)\n      shl(0xe0, 0x23b872dd)\n      dup2\n      mstore\n        /* \"devilwears-staking.sol\":2608:2618  msg.sender */\n      caller\n        /* \"devilwears-staking.sol\":2581:2644  nftCollection.transferFrom(msg.sender, address(this), _tokenId) */\n      0x04\n      dup3\n      add\n        /* \"#utility.yul\":4693:4727   */\n      mstore\n        /* \"devilwears-staking.sol\":2628:2632  this */\n      address\n        /* \"#utility.yul\":4743:4761   */\n      0x24\n      dup3\n      add\n        /* \"#utility.yul\":4736:4779   */\n      mstore\n        /* \"#utility.yul\":4795:4813   */\n      0x44\n      dup2\n      add\n        /* \"#utility.yul\":4788:4822   */\n      dup3\n      swap1\n      mstore\n        /* \"devilwears-staking.sol\":2581:2594  nftCollection */\n      immutable(\"0x8e8fab5f003314da8d1873ea7720e8d9f47650136d916064d1edb8a11d682624\")\n      sub(shl(0xa0, 0x01), 0x01)\n        /* \"devilwears-staking.sol\":2581:2607  nftCollection.transferFrom */\n      and\n      swap1\n      0x23b872dd\n      swap1\n        /* \"#utility.yul\":4605:4623   */\n      0x64\n      add\n        /* \"devilwears-staking.sol\":2581:2644  nftCollection.transferFrom(msg.sender, address(this), _tokenId) */\n      0x00\n      mload(0x40)\n      dup1\n      dup4\n      sub\n      dup2\n      0x00\n      dup8\n      dup1\n      extcodesize\n      iszero\n      dup1\n      iszero\n      tag_144\n      jumpi\n      0x00\n      dup1\n      revert\n    tag_144:\n      pop\n      gas\n      call\n      iszero\n      dup1\n      iszero\n      tag_146\n      jumpi\n      returndatasize\n      0x00\n      dup1\n      returndatacopy\n      revert(0x00, returndatasize)\n    tag_146:\n      pop\n      pop\n        /* \"devilwears-staking.sol\":2721:2754  StakedToken(msg.sender, _tokenId) */\n      0x40\n      dup1\n      mload\n      dup1\n      dup3\n      add\n      dup3\n      mstore\n        /* \"devilwears-staking.sol\":2733:2743  msg.sender */\n      caller\n        /* \"devilwears-staking.sol\":2721:2754  StakedToken(msg.sender, _tokenId) */\n      dup1\n      dup3\n      mstore\n      0x20\n      dup1\n      dup4\n      add\n      dup8\n      dup2\n      mstore\n      0x00\n        /* \"devilwears-staking.sol\":2819:2838  stakers[msg.sender] */\n      dup4\n      dup2\n      mstore\n        /* \"devilwears-staking.sol\":2819:2826  stakers */\n      0x02\n        /* \"devilwears-staking.sol\":2819:2838  stakers[msg.sender] */\n      dup1\n      dup5\n      mstore\n      swap6\n      dup2\n      keccak256\n        /* \"devilwears-staking.sol\":2819:2851  stakers[msg.sender].stakedTokens */\n      0x01\n      dup1\n      dup3\n      add\n        /* \"devilwears-staking.sol\":2819:2869  stakers[msg.sender].stakedTokens.push(stakedToken) */\n      dup1\n      sload\n      dup1\n      dup4\n      add\n      dup3\n      sstore\n      swap1\n      dup5\n      mstore\n      swap5\n      dup4\n      keccak256\n      dup8\n      mload\n      swap6\n      swap1\n      swap9\n      mul\n      swap1\n      swap8\n      add\n      dup1\n      sload\n      not(sub(shl(0xa0, 0x01), 0x01))\n      and\n      sub(shl(0xa0, 0x01), 0x01)\n      swap1\n      swap6\n      and\n      swap5\n      swap1\n      swap5\n      or\n      dup5\n      sstore\n      swap2\n      mload\n      swap3\n      swap1\n      swap6\n      add\n      swap2\n      swap1\n      swap2\n      sstore\n        /* \"devilwears-staking.sol\":2938:2957  stakers[msg.sender] */\n      swap1\n      dup4\n      mstore\n        /* \"devilwears-staking.sol\":2938:2972  stakers[msg.sender].amountStaked++ */\n      dup1\n      sload\n        /* \"devilwears-staking.sol\":2721:2754  StakedToken(msg.sender, _tokenId) */\n      swap2\n      swap5\n      pop\n        /* \"devilwears-staking.sol\":2938:2972  stakers[msg.sender].amountStaked++ */\n      swap1\n      swap3\n      pop\n        /* \"devilwears-staking.sol\":2819:2838  stakers[msg.sender] */\n      swap1\n        /* \"devilwears-staking.sol\":2938:2972  stakers[msg.sender].amountStaked++ */\n      tag_148\n      dup4\n      tag_80\n      jump\t// in\n    tag_148:\n      swap1\n      swap2\n      sstore\n      pop\n      pop\n      pop\n        /* \"devilwears-staking.sol\":3055:3078  stakerAddress[_tokenId] */\n      0x00\n      swap1\n      dup2\n      mstore\n        /* \"devilwears-staking.sol\":3055:3068  stakerAddress */\n      0x03\n        /* \"devilwears-staking.sol\":3055:3078  stakerAddress[_tokenId] */\n      0x20\n      swap1\n      dup2\n      mstore\n      0x40\n      dup1\n      dup4\n      keccak256\n        /* \"devilwears-staking.sol\":3055:3091  stakerAddress[_tokenId] = msg.sender */\n      dup1\n      sload\n      not(sub(shl(0xa0, 0x01), 0x01))\n      and\n        /* \"devilwears-staking.sol\":3081:3091  msg.sender */\n      caller\n        /* \"devilwears-staking.sol\":3055:3091  stakerAddress[_tokenId] = msg.sender */\n      swap1\n      dup2\n      or\n      swap1\n      swap2\n      sstore\n        /* \"devilwears-staking.sol\":3162:3181  stakers[msg.sender] */\n      dup4\n      mstore\n        /* \"devilwears-staking.sol\":3162:3169  stakers */\n      0x02\n        /* \"devilwears-staking.sol\":3162:3181  stakers[msg.sender] */\n      swap2\n      dup3\n      swap1\n      mstore\n      dup3\n      keccak256\n        /* \"devilwears-staking.sol\":3201:3216  block.timestamp */\n      timestamp\n        /* \"devilwears-staking.sol\":3162:3198  stakers[msg.sender].timeOfLastUpdate */\n      swap2\n      add\n        /* \"devilwears-staking.sol\":3162:3216  stakers[msg.sender].timeOfLastUpdate = block.timestamp */\n      sstore\n        /* \"devilwears-staking.sol\":3055:3091  stakerAddress[_tokenId] = msg.sender */\n      0x01\n        /* \"@openzeppelin/contracts/security/ReentrancyGuard.sol\":2628:2650   */\n      swap1\n      sstore\n        /* \"devilwears-staking.sol\":1970:3224  function stake(uint256 _tokenId) external nonReentrant {... */\n      jump\t// out\n        /* \"devilwears-staking.sol\":5895:6104  function availableRewards(address _staker) public view returns (uint256) {... */\n    tag_49:\n      sub(shl(0xa0, 0x01), 0x01)\n        /* \"devilwears-staking.sol\":6038:6054  stakers[_staker] */\n      dup2\n      and\n        /* \"devilwears-staking.sol\":5959:5966  uint256 */\n      0x00\n        /* \"devilwears-staking.sol\":6038:6054  stakers[_staker] */\n      swap1\n      dup2\n      mstore\n        /* \"devilwears-staking.sol\":6038:6045  stakers */\n      0x02\n        /* \"devilwears-staking.sol\":6038:6054  stakers[_staker] */\n      0x20\n      mstore\n      0x40\n      dup2\n      keccak256\n        /* \"devilwears-staking.sol\":6038:6071  stakers[_staker].unclaimedRewards */\n      0x03\n      add\n      sload\n        /* \"devilwears-staking.sol\":5959:5966  uint256 */\n      dup2\n      swap1\n        /* \"devilwears-staking.sol\":5997:6022  calculateRewards(_staker) */\n      tag_150\n        /* \"devilwears-staking.sol\":6046:6053  _staker */\n      dup5\n        /* \"devilwears-staking.sol\":5997:6013  calculateRewards */\n      tag_64\n        /* \"devilwears-staking.sol\":5997:6022  calculateRewards(_staker) */\n      jump\t// in\n    tag_150:\n        /* \"devilwears-staking.sol\":5997:6071  calculateRewards(_staker) +... */\n      tag_151\n      swap2\n      swap1\n      tag_66\n      jump\t// in\n    tag_151:\n        /* \"devilwears-staking.sol\":5979:6071  uint256 rewards = calculateRewards(_staker) +... */\n      swap4\n        /* \"devilwears-staking.sol\":5895:6104  function availableRewards(address _staker) public view returns (uint256) {... */\n      swap3\n      pop\n      pop\n      pop\n      jump\t// out\n        /* \"devilwears-staking.sol\":7233:7533  function calculateRewards(address _staker)... */\n    tag_64:\n        /* \"devilwears-staking.sol\":7502:7516  rewardsPerHour */\n      sload(0x01)\n      sub(shl(0xa0, 0x01), 0x01)\n        /* \"devilwears-staking.sol\":7458:7474  stakers[_staker] */\n      dup3\n      and\n        /* \"devilwears-staking.sol\":7326:7342  uint256 _rewards */\n      0x00\n        /* \"devilwears-staking.sol\":7458:7474  stakers[_staker] */\n      swap1\n      dup2\n      mstore\n        /* \"devilwears-staking.sol\":7458:7465  stakers */\n      0x02\n        /* \"devilwears-staking.sol\":7458:7474  stakers[_staker] */\n      0x20\n      dup2\n      swap1\n      mstore\n      0x40\n      dup3\n      keccak256\n        /* \"devilwears-staking.sol\":7458:7487  stakers[_staker].amountStaked */\n      dup1\n      sload\n        /* \"devilwears-staking.sol\":7404:7437  stakers[_staker].timeOfLastUpdate */\n      swap2\n      add\n      sload\n        /* \"devilwears-staking.sol\":7326:7342  uint256 _rewards */\n      swap2\n      swap3\n        /* \"devilwears-staking.sol\":7520:7524  3600 */\n      0x0e10\n      swap3\n        /* \"devilwears-staking.sol\":7502:7516  rewardsPerHour */\n      swap1\n      swap2\n        /* \"devilwears-staking.sol\":7458:7487  stakers[_staker].amountStaked */\n      swap1\n        /* \"devilwears-staking.sol\":7386:7437  block.timestamp - stakers[_staker].timeOfLastUpdate */\n      tag_153\n      swap1\n        /* \"devilwears-staking.sol\":7386:7401  block.timestamp */\n      timestamp\n        /* \"devilwears-staking.sol\":7386:7437  block.timestamp - stakers[_staker].timeOfLastUpdate */\n      tag_154\n      jump\t// in\n    tag_153:\n        /* \"devilwears-staking.sol\":7385:7487  (block.timestamp - stakers[_staker].timeOfLastUpdate) *... */\n      tag_155\n      swap2\n      swap1\n      tag_156\n      jump\t// in\n    tag_155:\n        /* \"devilwears-staking.sol\":7369:7516  (... */\n      tag_157\n      swap2\n      swap1\n      tag_156\n      jump\t// in\n    tag_157:\n        /* \"devilwears-staking.sol\":7368:7524  ((... */\n      tag_158\n      swap2\n      swap1\n      tag_159\n      jump\t// in\n    tag_158:\n        /* \"devilwears-staking.sol\":7360:7525  return (((... */\n      swap3\n        /* \"devilwears-staking.sol\":7233:7533  function calculateRewards(address _staker)... */\n      swap2\n      pop\n      pop\n      jump\t// out\n        /* \"@openzeppelin/contracts/token/ERC20/utils/SafeERC20.sol\":763:968   */\n    tag_98:\n        /* \"@openzeppelin/contracts/token/ERC20/utils/SafeERC20.sol\":902:960   */\n      0x40\n      dup1\n      mload\n      sub(shl(0xa0, 0x01), 0x01)\n        /* \"#utility.yul\":6649:6704   */\n      dup5\n      and\n        /* \"@openzeppelin/contracts/token/ERC20/utils/SafeERC20.sol\":902:960   */\n      0x24\n      dup3\n      add\n        /* \"#utility.yul\":6631:6705   */\n      mstore\n        /* \"#utility.yul\":6721:6739   */\n      0x44\n      dup1\n      dup3\n      add\n        /* \"#utility.yul\":6714:6748   */\n      dup5\n      swap1\n      mstore\n        /* \"@openzeppelin/contracts/token/ERC20/utils/SafeERC20.sol\":902:960   */\n      dup3\n      mload\n      dup1\n      dup4\n      sub\n      swap1\n      swap2\n      add\n      dup2\n      mstore\n        /* \"#utility.yul\":6604:6622   */\n      0x64\n      swap1\n      swap2\n      add\n        /* \"@openzeppelin/contracts/token/ERC20/utils/SafeERC20.sol\":902:960   */\n      swap1\n      swap2\n      mstore\n      0x20\n      dup2\n      add\n      dup1\n      mload\n      0xffffffffffffffffffffffffffffffffffffffffffffffffffffffff\n      and\n      shl(0xe0, 0xa9059cbb)\n      or\n      swap1\n      mstore\n        /* \"@openzeppelin/contracts/token/ERC20/utils/SafeERC20.sol\":875:961   */\n      tag_161\n      swap1\n        /* \"@openzeppelin/contracts/token/ERC20/utils/SafeERC20.sol\":895:900   */\n      dup5\n      swap1\n        /* \"@openzeppelin/contracts/token/ERC20/utils/SafeERC20.sol\":875:894   */\n      tag_164\n        /* \"@openzeppelin/contracts/token/ERC20/utils/SafeERC20.sol\":875:961   */\n      jump\t// in\n    tag_161:\n        /* \"@openzeppelin/contracts/token/ERC20/utils/SafeERC20.sol\":763:968   */\n      pop\n      pop\n      pop\n      jump\t// out\n        /* \"@openzeppelin/contracts/token/ERC20/utils/SafeERC20.sol\":3747:4453   */\n    tag_164:\n        /* \"@openzeppelin/contracts/token/ERC20/utils/SafeERC20.sol\":4166:4189   */\n      0x00\n        /* \"@openzeppelin/contracts/token/ERC20/utils/SafeERC20.sol\":4192:4261   */\n      tag_166\n        /* \"@openzeppelin/contracts/token/ERC20/utils/SafeERC20.sol\":4220:4224   */\n      dup3\n        /* \"@openzeppelin/contracts/token/ERC20/utils/SafeERC20.sol\":4192:4261   */\n      mload(0x40)\n      dup1\n      0x40\n      add\n      0x40\n      mstore\n      dup1\n      0x20\n      dup2\n      mstore\n      0x20\n      add\n      0x5361666545524332303a206c6f772d6c6576656c2063616c6c206661696c6564\n      dup2\n      mstore\n      pop\n        /* \"@openzeppelin/contracts/token/ERC20/utils/SafeERC20.sol\":4200:4205   */\n      dup6\n      sub(shl(0xa0, 0x01), 0x01)\n        /* \"@openzeppelin/contracts/token/ERC20/utils/SafeERC20.sol\":4192:4219   */\n      and\n      tag_167\n      swap1\n        /* \"@openzeppelin/contracts/token/ERC20/utils/SafeERC20.sol\":4192:4261   */\n      swap3\n      swap2\n      swap1\n      0xffffffff\n      and\n      jump\t// in\n    tag_166:\n        /* \"@openzeppelin/contracts/token/ERC20/utils/SafeERC20.sol\":4275:4292   */\n      dup1\n      mload\n        /* \"@openzeppelin/contracts/token/ERC20/utils/SafeERC20.sol\":4166:4261   */\n      swap1\n      swap2\n      pop\n        /* \"@openzeppelin/contracts/token/ERC20/utils/SafeERC20.sol\":4275:4296   */\n      iszero\n        /* \"@openzeppelin/contracts/token/ERC20/utils/SafeERC20.sol\":4271:4447   */\n      tag_161\n      jumpi\n        /* \"@openzeppelin/contracts/token/ERC20/utils/SafeERC20.sol\":4370:4380   */\n      dup1\n        /* \"@openzeppelin/contracts/token/ERC20/utils/SafeERC20.sol\":4359:4389   */\n      dup1\n      0x20\n      add\n      swap1\n      mload\n      dup2\n      add\n      swap1\n      tag_169\n      swap2\n      swap1\n      tag_170\n      jump\t// in\n    tag_169:\n        /* \"@openzeppelin/contracts/token/ERC20/utils/SafeERC20.sol\":4351:4436   */\n      tag_161\n      jumpi\n      mload(0x40)\n      shl(0xe5, 0x461bcd)\n      dup2\n      mstore\n        /* \"#utility.yul\":7243:7245   */\n      0x20\n        /* \"@openzeppelin/contracts/token/ERC20/utils/SafeERC20.sol\":4351:4436   */\n      0x04\n      dup3\n      add\n        /* \"#utility.yul\":7225:7246   */\n      mstore\n        /* \"#utility.yul\":7282:7284   */\n      0x2a\n        /* \"#utility.yul\":7262:7280   */\n      0x24\n      dup3\n      add\n        /* \"#utility.yul\":7255:7285   */\n      mstore\n        /* \"#utility.yul\":7321:7355   */\n      0x5361666545524332303a204552433230206f7065726174696f6e20646964206e\n        /* \"#utility.yul\":7301:7319   */\n      0x44\n      dup3\n      add\n        /* \"#utility.yul\":7294:7356   */\n      mstore\n        /* \"#utility.yul\":7392:7404   */\n      0x6f74207375636365656400000000000000000000000000000000000000000000\n        /* \"#utility.yul\":7372:7390   */\n      0x64\n      dup3\n      add\n        /* \"#utility.yul\":7365:7405   */\n      mstore\n        /* \"#utility.yul\":7422:7441   */\n      0x84\n      add\n        /* \"@openzeppelin/contracts/token/ERC20/utils/SafeERC20.sol\":4351:4436   */\n      tag_54\n        /* \"#utility.yul\":7041:7447   */\n      jump\n        /* \"@openzeppelin/contracts/utils/Address.sol\":3861:4084   */\n    tag_167:\n        /* \"@openzeppelin/contracts/utils/Address.sol\":3994:4006   */\n      0x60\n        /* \"@openzeppelin/contracts/utils/Address.sol\":4025:4077   */\n      tag_175\n        /* \"@openzeppelin/contracts/utils/Address.sol\":4047:4053   */\n      dup5\n        /* \"@openzeppelin/contracts/utils/Address.sol\":4055:4059   */\n      dup5\n        /* \"@openzeppelin/contracts/utils/Address.sol\":4061:4062   */\n      0x00\n        /* \"@openzeppelin/contracts/utils/Address.sol\":4064:4076   */\n      dup6\n        /* \"@openzeppelin/contracts/utils/Address.sol\":4025:4046   */\n      tag_176\n        /* \"@openzeppelin/contracts/utils/Address.sol\":4025:4077   */\n      jump\t// in\n    tag_175:\n        /* \"@openzeppelin/contracts/utils/Address.sol\":4018:4077   */\n      swap5\n        /* \"@openzeppelin/contracts/utils/Address.sol\":3861:4084   */\n      swap4\n      pop\n      pop\n      pop\n      pop\n      jump\t// out\n        /* \"@openzeppelin/contracts/utils/Address.sol\":4948:5447   */\n    tag_176:\n        /* \"@openzeppelin/contracts/utils/Address.sol\":5113:5125   */\n      0x60\n        /* \"@openzeppelin/contracts/utils/Address.sol\":5170:5175   */\n      dup3\n        /* \"@openzeppelin/contracts/utils/Address.sol\":5145:5166   */\n      selfbalance\n        /* \"@openzeppelin/contracts/utils/Address.sol\":5145:5175   */\n      lt\n      iszero\n        /* \"@openzeppelin/contracts/utils/Address.sol\":5137:5218   */\n      tag_178\n      jumpi\n      mload(0x40)\n      shl(0xe5, 0x461bcd)\n      dup2\n      mstore\n        /* \"#utility.yul\":7654:7656   */\n      0x20\n        /* \"@openzeppelin/contracts/utils/Address.sol\":5137:5218   */\n      0x04\n      dup3\n      add\n        /* \"#utility.yul\":7636:7657   */\n      mstore\n        /* \"#utility.yul\":7693:7695   */\n      0x26\n        /* \"#utility.yul\":7673:7691   */\n      0x24\n      dup3\n      add\n        /* \"#utility.yul\":7666:7696   */\n      mstore\n        /* \"#utility.yul\":7732:7766   */\n      0x416464726573733a20696e73756666696369656e742062616c616e636520666f\n        /* \"#utility.yul\":7712:7730   */\n      0x44\n      dup3\n      add\n        /* \"#utility.yul\":7705:7767   */\n      mstore\n        /* \"#utility.yul\":7803:7811   */\n      0x722063616c6c0000000000000000000000000000000000000000000000000000\n        /* \"#utility.yul\":7783:7801   */\n      0x64\n      dup3\n      add\n        /* \"#utility.yul\":7776:7812   */\n      mstore\n        /* \"#utility.yul\":7829:7848   */\n      0x84\n      add\n        /* \"@openzeppelin/contracts/utils/Address.sol\":5137:5218   */\n      tag_54\n        /* \"#utility.yul\":7452:7854   */\n      jump\n        /* \"@openzeppelin/contracts/utils/Address.sol\":5137:5218   */\n    tag_178:\n      sub(shl(0xa0, 0x01), 0x01)\n        /* \"@openzeppelin/contracts/utils/Address.sol\":1465:1484   */\n      dup6\n      and\n      extcodesize\n        /* \"@openzeppelin/contracts/utils/Address.sol\":5228:5288   */\n      tag_183\n      jumpi\n      mload(0x40)\n      shl(0xe5, 0x461bcd)\n      dup2\n      mstore\n        /* \"#utility.yul\":8061:8063   */\n      0x20\n        /* \"@openzeppelin/contracts/utils/Address.sol\":5228:5288   */\n      0x04\n      dup3\n      add\n        /* \"#utility.yul\":8043:8064   */\n      mstore\n        /* \"#utility.yul\":8100:8102   */\n      0x1d\n        /* \"#utility.yul\":8080:8098   */\n      0x24\n      dup3\n      add\n        /* \"#utility.yul\":8073:8103   */\n      mstore\n        /* \"#utility.yul\":8139:8170   */\n      0x416464726573733a2063616c6c20746f206e6f6e2d636f6e7472616374000000\n        /* \"#utility.yul\":8119:8137   */\n      0x44\n      dup3\n      add\n        /* \"#utility.yul\":8112:8171   */\n      mstore\n        /* \"#utility.yul\":8188:8206   */\n      0x64\n      add\n        /* \"@openzeppelin/contracts/utils/Address.sol\":5228:5288   */\n      tag_54\n        /* \"#utility.yul\":7859:8212   */\n      jump\n        /* \"@openzeppelin/contracts/utils/Address.sol\":5228:5288   */\n    tag_183:\n        /* \"@openzeppelin/contracts/utils/Address.sol\":5300:5312   */\n      0x00\n        /* \"@openzeppelin/contracts/utils/Address.sol\":5314:5337   */\n      dup1\n        /* \"@openzeppelin/contracts/utils/Address.sol\":5341:5347   */\n      dup7\n      sub(shl(0xa0, 0x01), 0x01)\n        /* \"@openzeppelin/contracts/utils/Address.sol\":5341:5352   */\n      and\n        /* \"@openzeppelin/contracts/utils/Address.sol\":5360:5365   */\n      dup6\n        /* \"@openzeppelin/contracts/utils/Address.sol\":5367:5371   */\n      dup8\n        /* \"@openzeppelin/contracts/utils/Address.sol\":5341:5372   */\n      mload(0x40)\n      tag_186\n      swap2\n      swap1\n      tag_187\n      jump\t// in\n    tag_186:\n      0x00\n      mload(0x40)\n      dup1\n      dup4\n      sub\n      dup2\n      dup6\n      dup8\n      gas\n      call\n      swap3\n      pop\n      pop\n      pop\n      returndatasize\n      dup1\n      0x00\n      dup2\n      eq\n      tag_190\n      jumpi\n      mload(0x40)\n      swap2\n      pop\n      and(add(returndatasize, 0x3f), not(0x1f))\n      dup3\n      add\n      0x40\n      mstore\n      returndatasize\n      dup3\n      mstore\n      returndatasize\n      0x00\n      0x20\n      dup5\n      add\n      returndatacopy\n      jump(tag_189)\n    tag_190:\n      0x60\n      swap2\n      pop\n    tag_189:\n      pop\n        /* \"@openzeppelin/contracts/utils/Address.sol\":5299:5372   */\n      swap2\n      pop\n      swap2\n      pop\n        /* \"@openzeppelin/contracts/utils/Address.sol\":5389:5440   */\n      tag_191\n        /* \"@openzeppelin/contracts/utils/Address.sol\":5406:5413   */\n      dup3\n        /* \"@openzeppelin/contracts/utils/Address.sol\":5415:5425   */\n      dup3\n        /* \"@openzeppelin/contracts/utils/Address.sol\":5427:5439   */\n      dup7\n        /* \"@openzeppelin/contracts/utils/Address.sol\":5389:5405   */\n      tag_192\n        /* \"@openzeppelin/contracts/utils/Address.sol\":5389:5440   */\n      jump\t// in\n    tag_191:\n        /* \"@openzeppelin/contracts/utils/Address.sol\":5382:5440   */\n      swap8\n        /* \"@openzeppelin/contracts/utils/Address.sol\":4948:5447   */\n      swap7\n      pop\n      pop\n      pop\n      pop\n      pop\n      pop\n      pop\n      jump\t// out\n        /* \"@openzeppelin/contracts/utils/Address.sol\":7561:8303   */\n    tag_192:\n        /* \"@openzeppelin/contracts/utils/Address.sol\":7707:7719   */\n      0x60\n        /* \"@openzeppelin/contracts/utils/Address.sol\":7735:7742   */\n      dup4\n        /* \"@openzeppelin/contracts/utils/Address.sol\":7731:8297   */\n      iszero\n      tag_195\n      jumpi\n      pop\n        /* \"@openzeppelin/contracts/utils/Address.sol\":7765:7775   */\n      dup2\n        /* \"@openzeppelin/contracts/utils/Address.sol\":7758:7775   */\n      jump(tag_151)\n        /* \"@openzeppelin/contracts/utils/Address.sol\":7731:8297   */\n    tag_195:\n        /* \"@openzeppelin/contracts/utils/Address.sol\":7876:7893   */\n      dup3\n      mload\n        /* \"@openzeppelin/contracts/utils/Address.sol\":7876:7897   */\n      iszero\n        /* \"@openzeppelin/contracts/utils/Address.sol\":7872:8287   */\n      tag_197\n      jumpi\n        /* \"@openzeppelin/contracts/utils/Address.sol\":8120:8130   */\n      dup3\n        /* \"@openzeppelin/contracts/utils/Address.sol\":8114:8131   */\n      mload\n        /* \"@openzeppelin/contracts/utils/Address.sol\":8180:8195   */\n      dup1\n        /* \"@openzeppelin/contracts/utils/Address.sol\":8167:8177   */\n      dup5\n        /* \"@openzeppelin/contracts/utils/Address.sol\":8163:8165   */\n      0x20\n        /* \"@openzeppelin/contracts/utils/Address.sol\":8159:8178   */\n      add\n        /* \"@openzeppelin/contracts/utils/Address.sol\":8152:8196   */\n      revert\n        /* \"@openzeppelin/contracts/utils/Address.sol\":7872:8287   */\n    tag_197:\n        /* \"@openzeppelin/contracts/utils/Address.sol\":8259:8271   */\n      dup2\n        /* \"@openzeppelin/contracts/utils/Address.sol\":8252:8272   */\n      mload(0x40)\n      shl(0xe5, 0x461bcd)\n      dup2\n      mstore\n      0x04\n      add\n      tag_54\n      swap2\n      swap1\n      tag_200\n      jump\t// in\n        /* \"#utility.yul\":14:194   */\n    tag_16:\n        /* \"#utility.yul\":73:79   */\n      0x00\n        /* \"#utility.yul\":126:128   */\n      0x20\n        /* \"#utility.yul\":114:123   */\n      dup3\n        /* \"#utility.yul\":105:112   */\n      dup5\n        /* \"#utility.yul\":101:124   */\n      sub\n        /* \"#utility.yul\":97:129   */\n      slt\n        /* \"#utility.yul\":94:146   */\n      iszero\n      tag_206\n      jumpi\n        /* \"#utility.yul\":142:143   */\n      0x00\n        /* \"#utility.yul\":139:140   */\n      dup1\n        /* \"#utility.yul\":132:144   */\n      revert\n        /* \"#utility.yul\":94:146   */\n    tag_206:\n      pop\n        /* \"#utility.yul\":165:188   */\n      calldataload\n      swap2\n        /* \"#utility.yul\":14:194   */\n      swap1\n      pop\n      jump\t// out\n        /* \"#utility.yul\":199:353   */\n    tag_201:\n      sub(shl(0xa0, 0x01), 0x01)\n        /* \"#utility.yul\":278:283   */\n      dup2\n        /* \"#utility.yul\":274:328   */\n      and\n        /* \"#utility.yul\":267:272   */\n      dup2\n        /* \"#utility.yul\":264:329   */\n      eq\n        /* \"#utility.yul\":254:347   */\n      tag_97\n      jumpi\n        /* \"#utility.yul\":343:344   */\n      0x00\n        /* \"#utility.yul\":340:341   */\n      dup1\n        /* \"#utility.yul\":333:345   */\n      revert\n        /* \"#utility.yul\":358:605   */\n    tag_22:\n        /* \"#utility.yul\":417:423   */\n      0x00\n        /* \"#utility.yul\":470:472   */\n      0x20\n        /* \"#utility.yul\":458:467   */\n      dup3\n        /* \"#utility.yul\":449:456   */\n      dup5\n        /* \"#utility.yul\":445:468   */\n      sub\n        /* \"#utility.yul\":441:473   */\n      slt\n        /* \"#utility.yul\":438:490   */\n      iszero\n      tag_210\n      jumpi\n        /* \"#utility.yul\":486:487   */\n      0x00\n        /* \"#utility.yul\":483:484   */\n      dup1\n        /* \"#utility.yul\":476:488   */\n      revert\n        /* \"#utility.yul\":438:490   */\n    tag_210:\n        /* \"#utility.yul\":525:534   */\n      dup2\n        /* \"#utility.yul\":512:535   */\n      calldataload\n        /* \"#utility.yul\":544:575   */\n      tag_151\n        /* \"#utility.yul\":569:574   */\n      dup2\n        /* \"#utility.yul\":544:575   */\n      tag_201\n      jump\t// in\n        /* \"#utility.yul\":610:1451   */\n    tag_25:\n        /* \"#utility.yul\":835:837   */\n      0x20\n        /* \"#utility.yul\":887:908   */\n      dup1\n      dup3\n      mstore\n        /* \"#utility.yul\":957:970   */\n      dup3\n      mload\n        /* \"#utility.yul\":860:878   */\n      dup3\n      dup3\n      add\n        /* \"#utility.yul\":979:1001   */\n      dup2\n      swap1\n      mstore\n        /* \"#utility.yul\":806:810   */\n      0x00\n      swap2\n        /* \"#utility.yul\":835:837   */\n      swap1\n        /* \"#utility.yul\":1020:1022   */\n      0x40\n      swap1\n        /* \"#utility.yul\":1038:1056   */\n      dup2\n      dup6\n      add\n      swap1\n        /* \"#utility.yul\":1079:1094   */\n      dup7\n      dup5\n      add\n        /* \"#utility.yul\":806:810   */\n      dup6\n        /* \"#utility.yul\":1122:1425   */\n    tag_213:\n        /* \"#utility.yul\":1136:1142   */\n      dup3\n        /* \"#utility.yul\":1133:1134   */\n      dup2\n        /* \"#utility.yul\":1130:1143   */\n      lt\n        /* \"#utility.yul\":1122:1425   */\n      iszero\n      tag_215\n      jumpi\n        /* \"#utility.yul\":1195:1208   */\n      dup2\n      mload\n        /* \"#utility.yul\":1237:1246   */\n      dup1\n      mload\n      sub(shl(0xa0, 0x01), 0x01)\n        /* \"#utility.yul\":1233:1291   */\n      and\n        /* \"#utility.yul\":1221:1292   */\n      dup6\n      mstore\n        /* \"#utility.yul\":1332:1343   */\n      dup7\n      add\n        /* \"#utility.yul\":1326:1344   */\n      mload\n        /* \"#utility.yul\":1312:1324   */\n      dup7\n      dup6\n      add\n        /* \"#utility.yul\":1305:1345   */\n      mstore\n        /* \"#utility.yul\":1365:1377   */\n      swap3\n      dup5\n      add\n      swap3\n        /* \"#utility.yul\":1400:1415   */\n      swap1\n      dup6\n      add\n      swap1\n        /* \"#utility.yul\":1158:1159   */\n      0x01\n        /* \"#utility.yul\":1151:1160   */\n      add\n        /* \"#utility.yul\":1122:1425   */\n      jump(tag_213)\n    tag_215:\n      pop\n        /* \"#utility.yul\":1442:1445   */\n      swap2\n      swap8\n        /* \"#utility.yul\":610:1451   */\n      swap7\n      pop\n      pop\n      pop\n      pop\n      pop\n      pop\n      pop\n      jump\t// out\n        /* \"#utility.yul\":3752:3879   */\n    tag_202:\n        /* \"#utility.yul\":3813:3823   */\n      0x4e487b71\n        /* \"#utility.yul\":3808:3811   */\n      0xe0\n        /* \"#utility.yul\":3804:3824   */\n      shl\n        /* \"#utility.yul\":3801:3802   */\n      0x00\n        /* \"#utility.yul\":3794:3825   */\n      mstore\n        /* \"#utility.yul\":3844:3848   */\n      0x11\n        /* \"#utility.yul\":3841:3842   */\n      0x04\n        /* \"#utility.yul\":3834:3849   */\n      mstore\n        /* \"#utility.yul\":3868:3872   */\n      0x24\n        /* \"#utility.yul\":3865:3866   */\n      0x00\n        /* \"#utility.yul\":3858:3873   */\n      revert\n        /* \"#utility.yul\":3884:4012   */\n    tag_66:\n        /* \"#utility.yul\":3924:3927   */\n      0x00\n        /* \"#utility.yul\":3955:3956   */\n      dup3\n        /* \"#utility.yul\":3951:3957   */\n      not\n        /* \"#utility.yul\":3948:3949   */\n      dup3\n        /* \"#utility.yul\":3945:3958   */\n      gt\n        /* \"#utility.yul\":3942:3981   */\n      iszero\n      tag_227\n      jumpi\n        /* \"#utility.yul\":3961:3979   */\n      tag_227\n      tag_202\n      jump\t// in\n    tag_227:\n      pop\n        /* \"#utility.yul\":3997:4006   */\n      add\n      swap1\n        /* \"#utility.yul\":3884:4012   */\n      jump\t// out\n        /* \"#utility.yul\":4017:4144   */\n    tag_72:\n        /* \"#utility.yul\":4078:4088   */\n      0x4e487b71\n        /* \"#utility.yul\":4073:4076   */\n      0xe0\n        /* \"#utility.yul\":4069:4089   */\n      shl\n        /* \"#utility.yul\":4066:4067   */\n      0x00\n        /* \"#utility.yul\":4059:4090   */\n      mstore\n        /* \"#utility.yul\":4109:4113   */\n      0x32\n        /* \"#utility.yul\":4106:4107   */\n      0x04\n        /* \"#utility.yul\":4099:4114   */\n      mstore\n        /* \"#utility.yul\":4133:4137   */\n      0x24\n        /* \"#utility.yul\":4130:4131   */\n      0x00\n        /* \"#utility.yul\":4123:4138   */\n      revert\n        /* \"#utility.yul\":4149:4284   */\n    tag_80:\n        /* \"#utility.yul\":4188:4191   */\n      0x00\n        /* \"#utility.yul\":4209:4226   */\n      0x01\n      dup3\n      add\n        /* \"#utility.yul\":4206:4249   */\n      tag_231\n      jumpi\n        /* \"#utility.yul\":4229:4247   */\n      tag_231\n      tag_202\n      jump\t// in\n    tag_231:\n      pop\n        /* \"#utility.yul\":4276:4277   */\n      0x01\n        /* \"#utility.yul\":4265:4278   */\n      add\n      swap1\n        /* \"#utility.yul\":4149:4284   */\n      jump\t// out\n        /* \"#utility.yul\":4289:4425   */\n    tag_85:\n        /* \"#utility.yul\":4328:4331   */\n      0x00\n        /* \"#utility.yul\":4356:4361   */\n      dup2\n        /* \"#utility.yul\":4346:4385   */\n      tag_234\n      jumpi\n        /* \"#utility.yul\":4365:4383   */\n      tag_234\n      tag_202\n      jump\t// in\n    tag_234:\n      pop\n      not(0x00)\n        /* \"#utility.yul\":4401:4419   */\n      add\n      swap1\n        /* \"#utility.yul\":4289:4425   */\n      jump\t// out\n        /* \"#utility.yul\":5190:5317   */\n    tag_103:\n        /* \"#utility.yul\":5251:5261   */\n      0x4e487b71\n        /* \"#utility.yul\":5246:5249   */\n      0xe0\n        /* \"#utility.yul\":5242:5262   */\n      shl\n        /* \"#utility.yul\":5239:5240   */\n      0x00\n        /* \"#utility.yul\":5232:5263   */\n      mstore\n        /* \"#utility.yul\":5282:5286   */\n      0x41\n        /* \"#utility.yul\":5279:5280   */\n      0x04\n        /* \"#utility.yul\":5272:5287   */\n      mstore\n        /* \"#utility.yul\":5306:5310   */\n      0x24\n        /* \"#utility.yul\":5303:5304   */\n      0x00\n        /* \"#utility.yul\":5296:5311   */\n      revert\n        /* \"#utility.yul\":5322:5573   */\n    tag_139:\n        /* \"#utility.yul\":5392:5398   */\n      0x00\n        /* \"#utility.yul\":5445:5447   */\n      0x20\n        /* \"#utility.yul\":5433:5442   */\n      dup3\n        /* \"#utility.yul\":5424:5431   */\n      dup5\n        /* \"#utility.yul\":5420:5443   */\n      sub\n        /* \"#utility.yul\":5416:5448   */\n      slt\n        /* \"#utility.yul\":5413:5465   */\n      iszero\n      tag_239\n      jumpi\n        /* \"#utility.yul\":5461:5462   */\n      0x00\n        /* \"#utility.yul\":5458:5459   */\n      dup1\n        /* \"#utility.yul\":5451:5463   */\n      revert\n        /* \"#utility.yul\":5413:5465   */\n    tag_239:\n        /* \"#utility.yul\":5493:5502   */\n      dup2\n        /* \"#utility.yul\":5487:5503   */\n      mload\n        /* \"#utility.yul\":5512:5543   */\n      tag_151\n        /* \"#utility.yul\":5537:5542   */\n      dup2\n        /* \"#utility.yul\":5512:5543   */\n      tag_201\n      jump\t// in\n        /* \"#utility.yul\":5932:6057   */\n    tag_154:\n        /* \"#utility.yul\":5972:5976   */\n      0x00\n        /* \"#utility.yul\":6000:6001   */\n      dup3\n        /* \"#utility.yul\":5997:5998   */\n      dup3\n        /* \"#utility.yul\":5994:6002   */\n      lt\n        /* \"#utility.yul\":5991:6025   */\n      iszero\n      tag_244\n      jumpi\n        /* \"#utility.yul\":6005:6023   */\n      tag_244\n      tag_202\n      jump\t// in\n    tag_244:\n      pop\n        /* \"#utility.yul\":6042:6051   */\n      sub\n      swap1\n        /* \"#utility.yul\":5932:6057   */\n      jump\t// out\n        /* \"#utility.yul\":6062:6230   */\n    tag_156:\n        /* \"#utility.yul\":6102:6109   */\n      0x00\n        /* \"#utility.yul\":6168:6169   */\n      dup2\n        /* \"#utility.yul\":6164:6165   */\n      0x00\n        /* \"#utility.yul\":6160:6166   */\n      not\n        /* \"#utility.yul\":6156:6170   */\n      div\n        /* \"#utility.yul\":6153:6154   */\n      dup4\n        /* \"#utility.yul\":6150:6171   */\n      gt\n        /* \"#utility.yul\":6145:6146   */\n      dup3\n        /* \"#utility.yul\":6138:6147   */\n      iszero\n        /* \"#utility.yul\":6131:6148   */\n      iszero\n        /* \"#utility.yul\":6127:6172   */\n      and\n        /* \"#utility.yul\":6124:6195   */\n      iszero\n      tag_247\n      jumpi\n        /* \"#utility.yul\":6175:6193   */\n      tag_247\n      tag_202\n      jump\t// in\n    tag_247:\n      pop\n        /* \"#utility.yul\":6215:6224   */\n      mul\n      swap1\n        /* \"#utility.yul\":6062:6230   */\n      jump\t// out\n        /* \"#utility.yul\":6235:6452   */\n    tag_159:\n        /* \"#utility.yul\":6275:6276   */\n      0x00\n        /* \"#utility.yul\":6301:6302   */\n      dup3\n        /* \"#utility.yul\":6291:6423   */\n      tag_249\n      jumpi\n        /* \"#utility.yul\":6345:6355   */\n      0x4e487b71\n        /* \"#utility.yul\":6340:6343   */\n      0xe0\n        /* \"#utility.yul\":6336:6356   */\n      shl\n        /* \"#utility.yul\":6333:6334   */\n      0x00\n        /* \"#utility.yul\":6326:6357   */\n      mstore\n        /* \"#utility.yul\":6380:6384   */\n      0x12\n        /* \"#utility.yul\":6377:6378   */\n      0x04\n        /* \"#utility.yul\":6370:6385   */\n      mstore\n        /* \"#utility.yul\":6408:6412   */\n      0x24\n        /* \"#utility.yul\":6405:6406   */\n      0x00\n        /* \"#utility.yul\":6398:6413   */\n      revert\n        /* \"#utility.yul\":6291:6423   */\n    tag_249:\n      pop\n        /* \"#utility.yul\":6437:6446   */\n      div\n      swap1\n        /* \"#utility.yul\":6235:6452   */\n      jump\t// out\n        /* \"#utility.yul\":6759:7036   */\n    tag_170:\n        /* \"#utility.yul\":6826:6832   */\n      0x00\n        /* \"#utility.yul\":6879:6881   */\n      0x20\n        /* \"#utility.yul\":6867:6876   */\n      dup3\n        /* \"#utility.yul\":6858:6865   */\n      dup5\n        /* \"#utility.yul\":6854:6877   */\n      sub\n        /* \"#utility.yul\":6850:6882   */\n      slt\n        /* \"#utility.yul\":6847:6899   */\n      iszero\n      tag_252\n      jumpi\n        /* \"#utility.yul\":6895:6896   */\n      0x00\n        /* \"#utility.yul\":6892:6893   */\n      dup1\n        /* \"#utility.yul\":6885:6897   */\n      revert\n        /* \"#utility.yul\":6847:6899   */\n    tag_252:\n        /* \"#utility.yul\":6927:6936   */\n      dup2\n        /* \"#utility.yul\":6921:6937   */\n      mload\n        /* \"#utility.yul\":6980:6985   */\n      dup1\n        /* \"#utility.yul\":6973:6986   */\n      iszero\n        /* \"#utility.yul\":6966:6987   */\n      iszero\n        /* \"#utility.yul\":6959:6964   */\n      dup2\n        /* \"#utility.yul\":6956:6988   */\n      eq\n        /* \"#utility.yul\":6946:7006   */\n      tag_151\n      jumpi\n        /* \"#utility.yul\":7002:7003   */\n      0x00\n        /* \"#utility.yul\":6999:7000   */\n      dup1\n        /* \"#utility.yul\":6992:7004   */\n      revert\n        /* \"#utility.yul\":8217:8475   */\n    tag_203:\n        /* \"#utility.yul\":8289:8290   */\n      0x00\n        /* \"#utility.yul\":8299:8412   */\n    tag_258:\n        /* \"#utility.yul\":8313:8319   */\n      dup4\n        /* \"#utility.yul\":8310:8311   */\n      dup2\n        /* \"#utility.yul\":8307:8320   */\n      lt\n        /* \"#utility.yul\":8299:8412   */\n      iszero\n      tag_260\n      jumpi\n        /* \"#utility.yul\":8389:8400   */\n      dup2\n      dup2\n      add\n        /* \"#utility.yul\":8383:8401   */\n      mload\n        /* \"#utility.yul\":8370:8381   */\n      dup4\n      dup3\n      add\n        /* \"#utility.yul\":8363:8402   */\n      mstore\n        /* \"#utility.yul\":8335:8337   */\n      0x20\n        /* \"#utility.yul\":8328:8338   */\n      add\n        /* \"#utility.yul\":8299:8412   */\n      jump(tag_258)\n    tag_260:\n        /* \"#utility.yul\":8430:8436   */\n      dup4\n        /* \"#utility.yul\":8427:8428   */\n      dup2\n        /* \"#utility.yul\":8424:8437   */\n      gt\n        /* \"#utility.yul\":8421:8469   */\n      iszero\n      tag_261\n      jumpi\n        /* \"#utility.yul\":8465:8466   */\n      0x00\n        /* \"#utility.yul\":8456:8462   */\n      dup5\n        /* \"#utility.yul\":8451:8454   */\n      dup5\n        /* \"#utility.yul\":8447:8463   */\n      add\n        /* \"#utility.yul\":8440:8467   */\n      mstore\n        /* \"#utility.yul\":8421:8469   */\n    tag_261:\n      pop\n        /* \"#utility.yul\":8217:8475   */\n      pop\n      pop\n      pop\n      jump\t// out\n        /* \"#utility.yul\":8480:8754   */\n    tag_187:\n        /* \"#utility.yul\":8609:8612   */\n      0x00\n        /* \"#utility.yul\":8647:8653   */\n      dup3\n        /* \"#utility.yul\":8641:8654   */\n      mload\n        /* \"#utility.yul\":8663:8716   */\n      tag_263\n        /* \"#utility.yul\":8709:8715   */\n      dup2\n        /* \"#utility.yul\":8704:8707   */\n      dup5\n        /* \"#utility.yul\":8697:8701   */\n      0x20\n        /* \"#utility.yul\":8689:8695   */\n      dup8\n        /* \"#utility.yul\":8685:8702   */\n      add\n        /* \"#utility.yul\":8663:8716   */\n      tag_203\n      jump\t// in\n    tag_263:\n        /* \"#utility.yul\":8732:8748   */\n      swap2\n      swap1\n      swap2\n      add\n      swap3\n        /* \"#utility.yul\":8480:8754   */\n      swap2\n      pop\n      pop\n      jump\t// out\n        /* \"#utility.yul\":8759:9142   */\n    tag_200:\n        /* \"#utility.yul\":8908:8910   */\n      0x20\n        /* \"#utility.yul\":8897:8906   */\n      dup2\n        /* \"#utility.yul\":8890:8911   */\n      mstore\n        /* \"#utility.yul\":8871:8875   */\n      0x00\n        /* \"#utility.yul\":8940:8946   */\n      dup3\n        /* \"#utility.yul\":8934:8947   */\n      mload\n        /* \"#utility.yul\":8983:8989   */\n      dup1\n        /* \"#utility.yul\":8978:8980   */\n      0x20\n        /* \"#utility.yul\":8967:8976   */\n      dup5\n        /* \"#utility.yul\":8963:8981   */\n      add\n        /* \"#utility.yul\":8956:8990   */\n      mstore\n        /* \"#utility.yul\":8999:9065   */\n      tag_265\n        /* \"#utility.yul\":9058:9064   */\n      dup2\n        /* \"#utility.yul\":9053:9055   */\n      0x40\n        /* \"#utility.yul\":9042:9051   */\n      dup6\n        /* \"#utility.yul\":9038:9056   */\n      add\n        /* \"#utility.yul\":9033:9035   */\n      0x20\n        /* \"#utility.yul\":9025:9031   */\n      dup8\n        /* \"#utility.yul\":9021:9036   */\n      add\n        /* \"#utility.yul\":8999:9065   */\n      tag_203\n      jump\t// in\n    tag_265:\n        /* \"#utility.yul\":9126:9128   */\n      0x1f\n        /* \"#utility.yul\":9105:9120   */\n      add\n      not(0x1f)\n        /* \"#utility.yul\":9101:9130   */\n      and\n        /* \"#utility.yul\":9086:9131   */\n      swap2\n      swap1\n      swap2\n      add\n        /* \"#utility.yul\":9133:9135   */\n      0x40\n        /* \"#utility.yul\":9082:9136   */\n      add\n      swap3\n        /* \"#utility.yul\":8759:9142   */\n      swap2\n      pop\n      pop\n      jump\t// out\n\n    auxdata: 0xa264697066735822122058084ab981a3006d312a87477672c95422086c2abf92d164ac97a545337c9d5c64736f6c634300080d0033\n}\n",
    "bytecode": {
      "linkReferences": {},
      "object": "60c0604052600260015534801561001557600080fd5b5060405161119d38038061119d83398101604081905261003491610068565b60016000556001600160a01b0391821660a052166080526100a2565b6001600160a01b038116811461006557600080fd5b50565b6000806040838503121561007b57600080fd5b825161008681610050565b602084015190925061009781610050565b809150509250929050565b60805160a0516110bb6100e26000396000818160f3015281816104c4015281816108cc01526109af0152600081816101b701526105db01526110bb6000f3fe608060405234801561001057600080fd5b50600436106100a35760003560e01c80639168ae7211610076578063a694fc3a1161005b578063a694fc3a1461019f578063d1af0c7d146101b2578063f854a27f146101d957600080fd5b80639168ae721461012d578063940670451461017657600080fd5b80632e1a7d4d146100a8578063372500ab146100bd57806363c28db1146100c55780636588103b146100ee575b600080fd5b6100bb6100b6366004610e42565b6101fa565b005b6100bb61053e565b6100d86100d3366004610e70565b61060d565b6040516100e59190610e8d565b60405180910390f35b6101157f000000000000000000000000000000000000000000000000000000000000000081565b6040516001600160a01b0390911681526020016100e5565b61015b61013b366004610e70565b600260208190526000918252604090912080549181015460039091015483565b604080519384526020840192909252908201526060016100e5565b610115610184366004610e42565b6003602052600090815260409020546001600160a01b031681565b6100bb6101ad366004610e42565b610807565b6101157f000000000000000000000000000000000000000000000000000000000000000081565b6101ec6101e7366004610e70565b610ac8565b6040519081526020016100e5565b6002600054036102515760405162461bcd60e51b815260206004820152601f60248201527f5265656e7472616e637947756172643a207265656e7472616e742063616c6c0060448201526064015b60405180910390fd5b6002600081815533815260209190915260409020546102b25760405162461bcd60e51b815260206004820152601960248201527f596f752068617665206e6f20646576696c73207374616b6564000000000000006044820152606401610248565b6000818152600360205260409020546001600160a01b031633146103185760405162461bcd60e51b815260206004820152601860248201527f596f7520646f6e2774206f776e20616e7920646576696c7300000000000000006044820152606401610248565b600061032333610b00565b3360009081526002602052604081206003018054929350839290919061034a908490610efb565b9091555060009050805b3360009081526002602052604090206001015481101561040f5733600090815260026020526040902060010180548591908390811061039557610395610f13565b9060005260206000209060020201600101541480156103f057503360009081526002602052604081206001018054839081106103d3576103d3610f13565b60009182526020909120600290910201546001600160a01b031614155b156103fd5780915061040f565b8061040781610f29565b915050610354565b5033600090815260026020526040812060010180548390811061043457610434610f13565b6000918252602080832060029283020180546001600160a01b0319166001600160a01b0395909516949094179093553382529091526040812080549161047983610f42565b90915550506000838152600360205260409081902080546001600160a01b0319169055516323b872dd60e01b8152306004820152336024820152604481018490526001600160a01b037f000000000000000000000000000000000000000000000000000000000000000016906323b872dd90606401600060405180830381600087803b15801561050857600080fd5b505af115801561051c573d6000803e3d6000fd5b5050336000908152600260208190526040822042910155600190555050505050565b33600081815260026020526040812060030154909161055c90610b00565b6105669190610efb565b9050600081116105b85760405162461bcd60e51b815260206004820152601c60248201527f596f752068617665206e6f207265776172647320746f20636c61696d000000006044820152606401610248565b336000818152600260208190526040822042918101919091556003015561060a907f00000000000000000000000000000000000000000000000000000000000000006001600160a01b03169083610b59565b50565b6001600160a01b038116600090815260026020526040902054606090156107c3576001600160a01b03821660009081526002602052604081205467ffffffffffffffff81111561065f5761065f610f59565b6040519080825280602002602001820160405280156106a457816020015b604080518082019091526000808252602082015281526020019060019003908161067d5790505b5090506000805b6001600160a01b0385166000908152600260205260409020600101548110156107ba576001600160a01b03851660009081526002602052604081206001018054839081106106fb576106fb610f13565b60009182526020909120600290910201546001600160a01b0316146107a8576001600160a01b038516600090815260026020526040902060010180548290811061074757610747610f13565b60009182526020918290206040805180820190915260029092020180546001600160a01b031682526001015491810191909152835184908490811061078e5761078e610f13565b602002602001018190525081806107a490610f29565b9250505b806107b281610f29565b9150506106ab565b50909392505050565b6040805160008082526020820190925290610800565b60408051808201909152600080825260208201528152602001906001900390816107d95790505b5092915050565b6002600054036108595760405162461bcd60e51b815260206004820152601f60248201527f5265656e7472616e637947756172643a207265656e7472616e742063616c6c006044820152606401610248565b600260008181553381526020919091526040902054156108ac57600061087e33610b00565b336000908152600260205260408120600301805492935083929091906108a5908490610efb565b9091555050505b6040516331a9108f60e11b81526004810182905233906001600160a01b037f00000000000000000000000000000000000000000000000000000000000000001690636352211e90602401602060405180830381865afa158015610913573d6000803e3d6000fd5b505050506040513d601f19601f820116820180604052508101906109379190610f6f565b6001600160a01b03161461098d5760405162461bcd60e51b815260206004820152601960248201527f596f7520646f6e2774206f776e20616e7920646576696c7321000000000000006044820152606401610248565b6040516323b872dd60e01b8152336004820152306024820152604481018290527f00000000000000000000000000000000000000000000000000000000000000006001600160a01b0316906323b872dd90606401600060405180830381600087803b1580156109fb57600080fd5b505af1158015610a0f573d6000803e3d6000fd5b50506040805180820182523380825260208083018781526000838152600280845295812060018082018054808301825590845294832087519590980290970180546001600160a01b0319166001600160a01b0390951694909417845591519290950191909155908352805491945090925090610a8a83610f29565b909155505050600090815260036020908152604080832080546001600160a01b03191633908117909155835260029182905282204291015560019055565b6001600160a01b0381166000908152600260205260408120600301548190610aef84610b00565b610af99190610efb565b9392505050565b6001546001600160a01b0382166000908152600260208190526040822080549101549192610e1092909190610b359042610f8c565b610b3f9190610fa3565b610b499190610fa3565b610b539190610fc2565b92915050565b604080516001600160a01b038416602482015260448082018490528251808303909101815260649091019091526020810180517bffffffffffffffffffffffffffffffffffffffffffffffffffffffff1663a9059cbb60e01b179052610bc0908490610bc5565b505050565b6000610c1a826040518060400160405280602081526020017f5361666545524332303a206c6f772d6c6576656c2063616c6c206661696c6564815250856001600160a01b0316610caa9092919063ffffffff16565b805190915015610bc05780806020019051810190610c389190610fe4565b610bc05760405162461bcd60e51b815260206004820152602a60248201527f5361666545524332303a204552433230206f7065726174696f6e20646964206e60448201527f6f742073756363656564000000000000000000000000000000000000000000006064820152608401610248565b6060610cb98484600085610cc1565b949350505050565b606082471015610d395760405162461bcd60e51b815260206004820152602660248201527f416464726573733a20696e73756666696369656e742062616c616e636520666f60448201527f722063616c6c00000000000000000000000000000000000000000000000000006064820152608401610248565b6001600160a01b0385163b610d905760405162461bcd60e51b815260206004820152601d60248201527f416464726573733a2063616c6c20746f206e6f6e2d636f6e74726163740000006044820152606401610248565b600080866001600160a01b03168587604051610dac9190611036565b60006040518083038185875af1925050503d8060008114610de9576040519150601f19603f3d011682016040523d82523d6000602084013e610dee565b606091505b5091509150610dfe828286610e09565b979650505050505050565b60608315610e18575081610af9565b825115610e285782518084602001fd5b8160405162461bcd60e51b81526004016102489190611052565b600060208284031215610e5457600080fd5b5035919050565b6001600160a01b038116811461060a57600080fd5b600060208284031215610e8257600080fd5b8135610af981610e5b565b602080825282518282018190526000919060409081850190868401855b82811015610ed857815180516001600160a01b03168552860151868501529284019290850190600101610eaa565b5091979650505050505050565b634e487b7160e01b600052601160045260246000fd5b60008219821115610f0e57610f0e610ee5565b500190565b634e487b7160e01b600052603260045260246000fd5b600060018201610f3b57610f3b610ee5565b5060010190565b600081610f5157610f51610ee5565b506000190190565b634e487b7160e01b600052604160045260246000fd5b600060208284031215610f8157600080fd5b8151610af981610e5b565b600082821015610f9e57610f9e610ee5565b500390565b6000816000190483118215151615610fbd57610fbd610ee5565b500290565b600082610fdf57634e487b7160e01b600052601260045260246000fd5b500490565b600060208284031215610ff657600080fd5b81518015158114610af957600080fd5b60005b83811015611021578181015183820152602001611009565b83811115611030576000848401525b50505050565b60008251611048818460208701611006565b9190910192915050565b6020815260008251806020840152611071816040850160208701611006565b601f01601f1916919091016040019291505056fea264697066735822122058084ab981a3006d312a87477672c95422086c2abf92d164ac97a545337c9d5c64736f6c634300080d0033",
      "opcodes": "PUSH1 0xC0 PUSH1 0x40 MSTORE PUSH1 0x2 PUSH1 0x1 SSTORE CALLVALUE DUP1 ISZERO PUSH2 0x15 JUMPI PUSH1 0x0 DUP1 REVERT JUMPDEST POP PUSH1 0x40 MLOAD PUSH2 0x119D CODESIZE SUB DUP1 PUSH2 0x119D DUP4 CODECOPY DUP2 ADD PUSH1 0x40 DUP2 SWAP1 MSTORE PUSH2 0x34 SWAP2 PUSH2 0x68 JUMP JUMPDEST PUSH1 0x1 PUSH1 0x0 SSTORE PUSH1 0x1 PUSH1 0x1 PUSH1 0xA0 SHL SUB SWAP2 DUP3 AND PUSH1 0xA0 MSTORE AND PUSH1 0x80 MSTORE PUSH2 0xA2 JUMP JUMPDEST PUSH1 0x1 PUSH1 0x1 PUSH1 0xA0 SHL SUB DUP2 AND DUP2 EQ PUSH2 0x65 JUMPI PUSH1 0x0 DUP1 REVERT JUMPDEST POP JUMP JUMPDEST PUSH1 0x0 DUP1 PUSH1 0x40 DUP4 DUP6 SUB SLT ISZERO PUSH2 0x7B JUMPI PUSH1 0x0 DUP1 REVERT JUMPDEST DUP3 MLOAD PUSH2 0x86 DUP2 PUSH2 0x50 JUMP JUMPDEST PUSH1 0x20 DUP5 ADD MLOAD SWAP1 SWAP3 POP PUSH2 0x97 DUP2 PUSH2 0x50 JUMP JUMPDEST DUP1 SWAP2 POP POP SWAP3 POP SWAP3 SWAP1 POP JUMP JUMPDEST PUSH1 0x80 MLOAD PUSH1 0xA0 MLOAD PUSH2 0x10BB PUSH2 0xE2 PUSH1 0x0 CODECOPY PUSH1 0x0 DUP2 DUP2 PUSH1 0xF3 ADD MSTORE DUP2 DUP2 PUSH2 0x4C4 ADD MSTORE DUP2 DUP2 PUSH2 0x8CC ADD MSTORE PUSH2 0x9AF ADD MSTORE PUSH1 0x0 DUP2 DUP2 PUSH2 0x1B7 ADD MSTORE PUSH2 0x5DB ADD MSTORE PUSH2 0x10BB PUSH1 0x0 RETURN INVALID PUSH1 0x80 PUSH1 0x40 MSTORE CALLVALUE DUP1 ISZERO PUSH2 0x10 JUMPI PUSH1 0x0 DUP1 REVERT JUMPDEST POP PUSH1 0x4 CALLDATASIZE LT PUSH2 0xA3 JUMPI PUSH1 0x0 CALLDATALOAD PUSH1 0xE0 SHR DUP1 PUSH4 0x9168AE72 GT PUSH2 0x76 JUMPI DUP1 PUSH4 0xA694FC3A GT PUSH2 0x5B JUMPI DUP1 PUSH4 0xA694FC3A EQ PUSH2 0x19F JUMPI DUP1 PUSH4 0xD1AF0C7D EQ PUSH2 0x1B2 JUMPI DUP1 PUSH4 0xF854A27F EQ PUSH2 0x1D9 JUMPI PUSH1 0x0 DUP1 REVERT JUMPDEST DUP1 PUSH4 0x9168AE72 EQ PUSH2 0x12D JUMPI DUP1 PUSH4 0x94067045 EQ PUSH2 0x176 JUMPI PUSH1 0x0 DUP1 REVERT JUMPDEST DUP1 PUSH4 0x2E1A7D4D EQ PUSH2 0xA8 JUMPI DUP1 PUSH4 0x372500AB EQ PUSH2 0xBD JUMPI DUP1 PUSH4 0x63C28DB1 EQ PUSH2 0xC5 JUMPI DUP1 PUSH4 0x6588103B EQ PUSH2 0xEE JUMPI JUMPDEST PUSH1 0x0 DUP1 REVERT JUMPDEST PUSH2 0xBB PUSH2 0xB6 CALLDATASIZE PUSH1 0x4 PUSH2 0xE42 JUMP JUMPDEST PUSH2 0x1FA JUMP JUMPDEST STOP JUMPDEST PUSH2 0xBB PUSH2 0x53E JUMP JUMPDEST PUSH2 0xD8 PUSH2 0xD3 CALLDATASIZE PUSH1 0x4 PUSH2 0xE70 JUMP JUMPDEST PUSH2 0x60D JUMP JUMPDEST PUSH1 0x40 MLOAD PUSH2 0xE5 SWAP2 SWAP1 PUSH2 0xE8D JUMP JUMPDEST PUSH1 0x40 MLOAD DUP1 SWAP2 SUB SWAP1 RETURN JUMPDEST PUSH2 0x115 PUSH32 0x0 DUP2 JUMP JUMPDEST PUSH1 0x40 MLOAD PUSH1 0x1 PUSH1 0x1 PUSH1 0xA0 SHL SUB SWAP1 SWAP2 AND DUP2 MSTORE PUSH1 0x20 ADD PUSH2 0xE5 JUMP JUMPDEST PUSH2 0x15B PUSH2 0x13B CALLDATASIZE PUSH1 0x4 PUSH2 0xE70 JUMP JUMPDEST PUSH1 0x2 PUSH1 0x20 DUP2 SWAP1 MSTORE PUSH1 0x0 SWAP2 DUP3 MSTORE PUSH1 0x40 SWAP1 SWAP2 KECCAK256 DUP1 SLOAD SWAP2 DUP2 ADD SLOAD PUSH1 0x3 SWAP1 SWAP2 ADD SLOAD DUP4 JUMP JUMPDEST PUSH1 0x40 DUP1 MLOAD SWAP4 DUP5 MSTORE PUSH1 0x20 DUP5 ADD SWAP3 SWAP1 SWAP3 MSTORE SWAP1 DUP3 ADD MSTORE PUSH1 0x60 ADD PUSH2 0xE5 JUMP JUMPDEST PUSH2 0x115 PUSH2 0x184 CALLDATASIZE PUSH1 0x4 PUSH2 0xE42 JUMP JUMPDEST PUSH1 0x3 PUSH1 0x20 MSTORE PUSH1 0x0 SWAP1 DUP2 MSTORE PUSH1 0x40 SWAP1 KECCAK256 SLOAD PUSH1 0x1 PUSH1 0x1 PUSH1 0xA0 SHL SUB AND DUP2 JUMP JUMPDEST PUSH2 0xBB PUSH2 0x1AD CALLDATASIZE PUSH1 0x4 PUSH2 0xE42 JUMP JUMPDEST PUSH2 0x807 JUMP JUMPDEST PUSH2 0x115 PUSH32 0x0 DUP2 JUMP JUMPDEST PUSH2 0x1EC PUSH2 0x1E7 CALLDATASIZE PUSH1 0x4 PUSH2 0xE70 JUMP JUMPDEST PUSH2 0xAC8 JUMP JUMPDEST PUSH1 0x40 MLOAD SWAP1 DUP2 MSTORE PUSH1 0x20 ADD PUSH2 0xE5 JUMP JUMPDEST PUSH1 0x2 PUSH1 0x0 SLOAD SUB PUSH2 0x251 JUMPI PUSH1 0x40 MLOAD PUSH3 0x461BCD PUSH1 0xE5 SHL DUP2 MSTORE PUSH1 0x20 PUSH1 0x4 DUP3 ADD MSTORE PUSH1 0x1F PUSH1 0x24 DUP3 ADD MSTORE PUSH32 0x5265656E7472616E637947756172643A207265656E7472616E742063616C6C00 PUSH1 0x44 DUP3 ADD MSTORE PUSH1 0x64 ADD JUMPDEST PUSH1 0x40 MLOAD DUP1 SWAP2 SUB SWAP1 REVERT JUMPDEST PUSH1 0x2 PUSH1 0x0 DUP2 DUP2 SSTORE CALLER DUP2 MSTORE PUSH1 0x20 SWAP2 SWAP1 SWAP2 MSTORE PUSH1 0x40 SWAP1 KECCAK256 SLOAD PUSH2 0x2B2 JUMPI PUSH1 0x40 MLOAD PUSH3 0x461BCD PUSH1 0xE5 SHL DUP2 MSTORE PUSH1 0x20 PUSH1 0x4 DUP3 ADD MSTORE PUSH1 0x19 PUSH1 0x24 DUP3 ADD MSTORE PUSH32 0x596F752068617665206E6F20646576696C73207374616B656400000000000000 PUSH1 0x44 DUP3 ADD MSTORE PUSH1 0x64 ADD PUSH2 0x248 JUMP JUMPDEST PUSH1 0x0 DUP2 DUP2 MSTORE PUSH1 0x3 PUSH1 0x20 MSTORE PUSH1 0x40 SWAP1 KECCAK256 SLOAD PUSH1 0x1 PUSH1 0x1 PUSH1 0xA0 SHL SUB AND CALLER EQ PUSH2 0x318 JUMPI PUSH1 0x40 MLOAD PUSH3 0x461BCD PUSH1 0xE5 SHL DUP2 MSTORE PUSH1 0x20 PUSH1 0x4 DUP3 ADD MSTORE PUSH1 0x18 PUSH1 0x24 DUP3 ADD MSTORE PUSH32 0x596F7520646F6E2774206F776E20616E7920646576696C730000000000000000 PUSH1 0x44 DUP3 ADD MSTORE PUSH1 0x64 ADD PUSH2 0x248 JUMP JUMPDEST PUSH1 0x0 PUSH2 0x323 CALLER PUSH2 0xB00 JUMP JUMPDEST CALLER PUSH1 0x0 SWAP1 DUP2 MSTORE PUSH1 0x2 PUSH1 0x20 MSTORE PUSH1 0x40 DUP2 KECCAK256 PUSH1 0x3 ADD DUP1 SLOAD SWAP3 SWAP4 POP DUP4 SWAP3 SWAP1 SWAP2 SWAP1 PUSH2 0x34A SWAP1 DUP5 SWAP1 PUSH2 0xEFB JUMP JUMPDEST SWAP1 SWAP2 SSTORE POP PUSH1 0x0 SWAP1 POP DUP1 JUMPDEST CALLER PUSH1 0x0 SWAP1 DUP2 MSTORE PUSH1 0x2 PUSH1 0x20 MSTORE PUSH1 0x40 SWAP1 KECCAK256 PUSH1 0x1 ADD SLOAD DUP2 LT ISZERO PUSH2 0x40F JUMPI CALLER PUSH1 0x0 SWAP1 DUP2 MSTORE PUSH1 0x2 PUSH1 0x20 MSTORE PUSH1 0x40 SWAP1 KECCAK256 PUSH1 0x1 ADD DUP1 SLOAD DUP6 SWAP2 SWAP1 DUP4 SWAP1 DUP2 LT PUSH2 0x395 JUMPI PUSH2 0x395 PUSH2 0xF13 JUMP JUMPDEST SWAP1 PUSH1 0x0 MSTORE PUSH1 0x20 PUSH1 0x0 KECCAK256 SWAP1 PUSH1 0x2 MUL ADD PUSH1 0x1 ADD SLOAD EQ DUP1 ISZERO PUSH2 0x3F0 JUMPI POP CALLER PUSH1 0x0 SWAP1 DUP2 MSTORE PUSH1 0x2 PUSH1 0x20 MSTORE PUSH1 0x40 DUP2 KECCAK256 PUSH1 0x1 ADD DUP1 SLOAD DUP4 SWAP1 DUP2 LT PUSH2 0x3D3 JUMPI PUSH2 0x3D3 PUSH2 0xF13 JUMP JUMPDEST PUSH1 0x0 SWAP2 DUP3 MSTORE PUSH1 0x20 SWAP1 SWAP2 KECCAK256 PUSH1 0x2 SWAP1 SWAP2 MUL ADD SLOAD PUSH1 0x1 PUSH1 0x1 PUSH1 0xA0 SHL SUB AND EQ ISZERO JUMPDEST ISZERO PUSH2 0x3FD JUMPI DUP1 SWAP2 POP PUSH2 0x40F JUMP JUMPDEST DUP1 PUSH2 0x407 DUP2 PUSH2 0xF29 JUMP JUMPDEST SWAP2 POP POP PUSH2 0x354 JUMP JUMPDEST POP CALLER PUSH1 0x0 SWAP1 DUP2 MSTORE PUSH1 0x2 PUSH1 0x20 MSTORE PUSH1 0x40 DUP2 KECCAK256 PUSH1 0x1 ADD DUP1 SLOAD DUP4 SWAP1 DUP2 LT PUSH2 0x434 JUMPI PUSH2 0x434 PUSH2 0xF13 JUMP JUMPDEST PUSH1 0x0 SWAP2 DUP3 MSTORE PUSH1 0x20 DUP1 DUP4 KECCAK256 PUSH1 0x2 SWAP3 DUP4 MUL ADD DUP1 SLOAD PUSH1 0x1 PUSH1 0x1 PUSH1 0xA0 SHL SUB NOT AND PUSH1 0x1 PUSH1 0x1 PUSH1 0xA0 SHL SUB SWAP6 SWAP1 SWAP6 AND SWAP5 SWAP1 SWAP5 OR SWAP1 SWAP4 SSTORE CALLER DUP3 MSTORE SWAP1 SWAP2 MSTORE PUSH1 0x40 DUP2 KECCAK256 DUP1 SLOAD SWAP2 PUSH2 0x479 DUP4 PUSH2 0xF42 JUMP JUMPDEST SWAP1 SWAP2 SSTORE POP POP PUSH1 0x0 DUP4 DUP2 MSTORE PUSH1 0x3 PUSH1 0x20 MSTORE PUSH1 0x40 SWAP1 DUP2 SWAP1 KECCAK256 DUP1 SLOAD PUSH1 0x1 PUSH1 0x1 PUSH1 0xA0 SHL SUB NOT AND SWAP1 SSTORE MLOAD PUSH4 0x23B872DD PUSH1 0xE0 SHL DUP2 MSTORE ADDRESS PUSH1 0x4 DUP3 ADD MSTORE CALLER PUSH1 0x24 DUP3 ADD MSTORE PUSH1 0x44 DUP2 ADD DUP5 SWAP1 MSTORE PUSH1 0x1 PUSH1 0x1 PUSH1 0xA0 SHL SUB PUSH32 0x0 AND SWAP1 PUSH4 0x23B872DD SWAP1 PUSH1 0x64 ADD PUSH1 0x0 PUSH1 0x40 MLOAD DUP1 DUP4 SUB DUP2 PUSH1 0x0 DUP8 DUP1 EXTCODESIZE ISZERO DUP1 ISZERO PUSH2 0x508 JUMPI PUSH1 0x0 DUP1 REVERT JUMPDEST POP GAS CALL ISZERO DUP1 ISZERO PUSH2 0x51C JUMPI RETURNDATASIZE PUSH1 0x0 DUP1 RETURNDATACOPY RETURNDATASIZE PUSH1 0x0 REVERT JUMPDEST POP POP CALLER PUSH1 0x0 SWAP1 DUP2 MSTORE PUSH1 0x2 PUSH1 0x20 DUP2 SWAP1 MSTORE PUSH1 0x40 DUP3 KECCAK256 TIMESTAMP SWAP2 ADD SSTORE PUSH1 0x1 SWAP1 SSTORE POP POP POP POP POP JUMP JUMPDEST CALLER PUSH1 0x0 DUP2 DUP2 MSTORE PUSH1 0x2 PUSH1 0x20 MSTORE PUSH1 0x40 DUP2 KECCAK256 PUSH1 0x3 ADD SLOAD SWAP1 SWAP2 PUSH2 0x55C SWAP1 PUSH2 0xB00 JUMP JUMPDEST PUSH2 0x566 SWAP2 SWAP1 PUSH2 0xEFB JUMP JUMPDEST SWAP1 POP PUSH1 0x0 DUP2 GT PUSH2 0x5B8 JUMPI PUSH1 0x40 MLOAD PUSH3 0x461BCD PUSH1 0xE5 SHL DUP2 MSTORE PUSH1 0x20 PUSH1 0x4 DUP3 ADD MSTORE PUSH1 0x1C PUSH1 0x24 DUP3 ADD MSTORE PUSH32 0x596F752068617665206E6F207265776172647320746F20636C61696D00000000 PUSH1 0x44 DUP3 ADD MSTORE PUSH1 0x64 ADD PUSH2 0x248 JUMP JUMPDEST CALLER PUSH1 0x0 DUP2 DUP2 MSTORE PUSH1 0x2 PUSH1 0x20 DUP2 SWAP1 MSTORE PUSH1 0x40 DUP3 KECCAK256 TIMESTAMP SWAP2 DUP2 ADD SWAP2 SWAP1 SWAP2 SSTORE PUSH1 0x3 ADD SSTORE PUSH2 0x60A SWAP1 PUSH32 0x0 PUSH1 0x1 PUSH1 0x1 PUSH1 0xA0 SHL SUB AND SWAP1 DUP4 PUSH2 0xB59 JUMP JUMPDEST POP JUMP JUMPDEST PUSH1 0x1 PUSH1 0x1 PUSH1 0xA0 SHL SUB DUP2 AND PUSH1 0x0 SWAP1 DUP2 MSTORE PUSH1 0x2 PUSH1 0x20 MSTORE PUSH1 0x40 SWAP1 KECCAK256 SLOAD PUSH1 0x60 SWAP1 ISZERO PUSH2 0x7C3 JUMPI PUSH1 0x1 PUSH1 0x1 PUSH1 0xA0 SHL SUB DUP3 AND PUSH1 0x0 SWAP1 DUP2 MSTORE PUSH1 0x2 PUSH1 0x20 MSTORE PUSH1 0x40 DUP2 KECCAK256 SLOAD PUSH8 0xFFFFFFFFFFFFFFFF DUP2 GT ISZERO PUSH2 0x65F JUMPI PUSH2 0x65F PUSH2 0xF59 JUMP JUMPDEST PUSH1 0x40 MLOAD SWAP1 DUP1 DUP3 MSTORE DUP1 PUSH1 0x20 MUL PUSH1 0x20 ADD DUP3 ADD PUSH1 0x40 MSTORE DUP1 ISZERO PUSH2 0x6A4 JUMPI DUP2 PUSH1 0x20 ADD JUMPDEST PUSH1 0x40 DUP1 MLOAD DUP1 DUP3 ADD SWAP1 SWAP2 MSTORE PUSH1 0x0 DUP1 DUP3 MSTORE PUSH1 0x20 DUP3 ADD MSTORE DUP2 MSTORE PUSH1 0x20 ADD SWAP1 PUSH1 0x1 SWAP1 SUB SWAP1 DUP2 PUSH2 0x67D JUMPI SWAP1 POP JUMPDEST POP SWAP1 POP PUSH1 0x0 DUP1 JUMPDEST PUSH1 0x1 PUSH1 0x1 PUSH1 0xA0 SHL SUB DUP6 AND PUSH1 0x0 SWAP1 DUP2 MSTORE PUSH1 0x2 PUSH1 0x20 MSTORE PUSH1 0x40 SWAP1 KECCAK256 PUSH1 0x1 ADD SLOAD DUP2 LT ISZERO PUSH2 0x7BA JUMPI PUSH1 0x1 PUSH1 0x1 PUSH1 0xA0 SHL SUB DUP6 AND PUSH1 0x0 SWAP1 DUP2 MSTORE PUSH1 0x2 PUSH1 0x20 MSTORE PUSH1 0x40 DUP2 KECCAK256 PUSH1 0x1 ADD DUP1 SLOAD DUP4 SWAP1 DUP2 LT PUSH2 0x6FB JUMPI PUSH2 0x6FB PUSH2 0xF13 JUMP JUMPDEST PUSH1 0x0 SWAP2 DUP3 MSTORE PUSH1 0x20 SWAP1 SWAP2 KECCAK256 PUSH1 0x2 SWAP1 SWAP2 MUL ADD SLOAD PUSH1 0x1 PUSH1 0x1 PUSH1 0xA0 SHL SUB AND EQ PUSH2 0x7A8 JUMPI PUSH1 0x1 PUSH1 0x1 PUSH1 0xA0 SHL SUB DUP6 AND PUSH1 0x0 SWAP1 DUP2 MSTORE PUSH1 0x2 PUSH1 0x20 MSTORE PUSH1 0x40 SWAP1 KECCAK256 PUSH1 0x1 ADD DUP1 SLOAD DUP3 SWAP1 DUP2 LT PUSH2 0x747 JUMPI PUSH2 0x747 PUSH2 0xF13 JUMP JUMPDEST PUSH1 0x0 SWAP2 DUP3 MSTORE PUSH1 0x20 SWAP2 DUP3 SWAP1 KECCAK256 PUSH1 0x40 DUP1 MLOAD DUP1 DUP3 ADD SWAP1 SWAP2 MSTORE PUSH1 0x2 SWAP1 SWAP3 MUL ADD DUP1 SLOAD PUSH1 0x1 PUSH1 0x1 PUSH1 0xA0 SHL SUB AND DUP3 MSTORE PUSH1 0x1 ADD SLOAD SWAP2 DUP2 ADD SWAP2 SWAP1 SWAP2 MSTORE DUP4 MLOAD DUP5 SWAP1 DUP5 SWAP1 DUP2 LT PUSH2 0x78E JUMPI PUSH2 0x78E PUSH2 0xF13 JUMP JUMPDEST PUSH1 0x20 MUL PUSH1 0x20 ADD ADD DUP2 SWAP1 MSTORE POP DUP2 DUP1 PUSH2 0x7A4 SWAP1 PUSH2 0xF29 JUMP JUMPDEST SWAP3 POP POP JUMPDEST DUP1 PUSH2 0x7B2 DUP2 PUSH2 0xF29 JUMP JUMPDEST SWAP2 POP POP PUSH2 0x6AB JUMP JUMPDEST POP SWAP1 SWAP4 SWAP3 POP POP POP JUMP JUMPDEST PUSH1 0x40 DUP1 MLOAD PUSH1 0x0 DUP1 DUP3 MSTORE PUSH1 0x20 DUP3 ADD SWAP1 SWAP3 MSTORE SWAP1 PUSH2 0x800 JUMP JUMPDEST PUSH1 0x40 DUP1 MLOAD DUP1 DUP3 ADD SWAP1 SWAP2 MSTORE PUSH1 0x0 DUP1 DUP3 MSTORE PUSH1 0x20 DUP3 ADD MSTORE DUP2 MSTORE PUSH1 0x20 ADD SWAP1 PUSH1 0x1 SWAP1 SUB SWAP1 DUP2 PUSH2 0x7D9 JUMPI SWAP1 POP JUMPDEST POP SWAP3 SWAP2 POP POP JUMP JUMPDEST PUSH1 0x2 PUSH1 0x0 SLOAD SUB PUSH2 0x859 JUMPI PUSH1 0x40 MLOAD PUSH3 0x461BCD PUSH1 0xE5 SHL DUP2 MSTORE PUSH1 0x20 PUSH1 0x4 DUP3 ADD MSTORE PUSH1 0x1F PUSH1 0x24 DUP3 ADD MSTORE PUSH32 0x5265656E7472616E637947756172643A207265656E7472616E742063616C6C00 PUSH1 0x44 DUP3 ADD MSTORE PUSH1 0x64 ADD PUSH2 0x248 JUMP JUMPDEST PUSH1 0x2 PUSH1 0x0 DUP2 DUP2 SSTORE CALLER DUP2 MSTORE PUSH1 0x20 SWAP2 SWAP1 SWAP2 MSTORE PUSH1 0x40 SWAP1 KECCAK256 SLOAD ISZERO PUSH2 0x8AC JUMPI PUSH1 0x0 PUSH2 0x87E CALLER PUSH2 0xB00 JUMP JUMPDEST CALLER PUSH1 0x0 SWAP1 DUP2 MSTORE PUSH1 0x2 PUSH1 0x20 MSTORE PUSH1 0x40 DUP2 KECCAK256 PUSH1 0x3 ADD DUP1 SLOAD SWAP3 SWAP4 POP DUP4 SWAP3 SWAP1 SWAP2 SWAP1 PUSH2 0x8A5 SWAP1 DUP5 SWAP1 PUSH2 0xEFB JUMP JUMPDEST SWAP1 SWAP2 SSTORE POP POP POP JUMPDEST PUSH1 0x40 MLOAD PUSH4 0x31A9108F PUSH1 0xE1 SHL DUP2 MSTORE PUSH1 0x4 DUP2 ADD DUP3 SWAP1 MSTORE CALLER SWAP1 PUSH1 0x1 PUSH1 0x1 PUSH1 0xA0 SHL SUB PUSH32 0x0 AND SWAP1 PUSH4 0x6352211E SWAP1 PUSH1 0x24 ADD PUSH1 0x20 PUSH1 0x40 MLOAD DUP1 DUP4 SUB DUP2 DUP7 GAS STATICCALL ISZERO DUP1 ISZERO PUSH2 0x913 JUMPI RETURNDATASIZE PUSH1 0x0 DUP1 RETURNDATACOPY RETURNDATASIZE PUSH1 0x0 REVERT JUMPDEST POP POP POP POP PUSH1 0x40 MLOAD RETURNDATASIZE PUSH1 0x1F NOT PUSH1 0x1F DUP3 ADD AND DUP3 ADD DUP1 PUSH1 0x40 MSTORE POP DUP2 ADD SWAP1 PUSH2 0x937 SWAP2 SWAP1 PUSH2 0xF6F JUMP JUMPDEST PUSH1 0x1 PUSH1 0x1 PUSH1 0xA0 SHL SUB AND EQ PUSH2 0x98D JUMPI PUSH1 0x40 MLOAD PUSH3 0x461BCD PUSH1 0xE5 SHL DUP2 MSTORE PUSH1 0x20 PUSH1 0x4 DUP3 ADD MSTORE PUSH1 0x19 PUSH1 0x24 DUP3 ADD MSTORE PUSH32 0x596F7520646F6E2774206F776E20616E7920646576696C732100000000000000 PUSH1 0x44 DUP3 ADD MSTORE PUSH1 0x64 ADD PUSH2 0x248 JUMP JUMPDEST PUSH1 0x40 MLOAD PUSH4 0x23B872DD PUSH1 0xE0 SHL DUP2 MSTORE CALLER PUSH1 0x4 DUP3 ADD MSTORE ADDRESS PUSH1 0x24 DUP3 ADD MSTORE PUSH1 0x44 DUP2 ADD DUP3 SWAP1 MSTORE PUSH32 0x0 PUSH1 0x1 PUSH1 0x1 PUSH1 0xA0 SHL SUB AND SWAP1 PUSH4 0x23B872DD SWAP1 PUSH1 0x64 ADD PUSH1 0x0 PUSH1 0x40 MLOAD DUP1 DUP4 SUB DUP2 PUSH1 0x0 DUP8 DUP1 EXTCODESIZE ISZERO DUP1 ISZERO PUSH2 0x9FB JUMPI PUSH1 0x0 DUP1 REVERT JUMPDEST POP GAS CALL ISZERO DUP1 ISZERO PUSH2 0xA0F JUMPI RETURNDATASIZE PUSH1 0x0 DUP1 RETURNDATACOPY RETURNDATASIZE PUSH1 0x0 REVERT JUMPDEST POP POP PUSH1 0x40 DUP1 MLOAD DUP1 DUP3 ADD DUP3 MSTORE CALLER DUP1 DUP3 MSTORE PUSH1 0x20 DUP1 DUP4 ADD DUP8 DUP2 MSTORE PUSH1 0x0 DUP4 DUP2 MSTORE PUSH1 0x2 DUP1 DUP5 MSTORE SWAP6 DUP2 KECCAK256 PUSH1 0x1 DUP1 DUP3 ADD DUP1 SLOAD DUP1 DUP4 ADD DUP3 SSTORE SWAP1 DUP5 MSTORE SWAP5 DUP4 KECCAK256 DUP8 MLOAD SWAP6 SWAP1 SWAP9 MUL SWAP1 SWAP8 ADD DUP1 SLOAD PUSH1 0x1 PUSH1 0x1 PUSH1 0xA0 SHL SUB NOT AND PUSH1 0x1 PUSH1 0x1 PUSH1 0xA0 SHL SUB SWAP1 SWAP6 AND SWAP5 SWAP1 SWAP5 OR DUP5 SSTORE SWAP2 MLOAD SWAP3 SWAP1 SWAP6 ADD SWAP2 SWAP1 SWAP2 SSTORE SWAP1 DUP4 MSTORE DUP1 SLOAD SWAP2 SWAP5 POP SWAP1 SWAP3 POP SWAP1 PUSH2 0xA8A DUP4 PUSH2 0xF29 JUMP JUMPDEST SWAP1 SWAP2 SSTORE POP POP POP PUSH1 0x0 SWAP1 DUP2 MSTORE PUSH1 0x3 PUSH1 0x20 SWAP1 DUP2 MSTORE PUSH1 0x40 DUP1 DUP4 KECCAK256 DUP1 SLOAD PUSH1 0x1 PUSH1 0x1 PUSH1 0xA0 SHL SUB NOT AND CALLER SWAP1 DUP2 OR SWAP1 SWAP2 SSTORE DUP4 MSTORE PUSH1 0x2 SWAP2 DUP3 SWAP1 MSTORE DUP3 KECCAK256 TIMESTAMP SWAP2 ADD SSTORE PUSH1 0x1 SWAP1 SSTORE JUMP JUMPDEST PUSH1 0x1 PUSH1 0x1 PUSH1 0xA0 SHL SUB DUP2 AND PUSH1 0x0 SWAP1 DUP2 MSTORE PUSH1 0x2 PUSH1 0x20 MSTORE PUSH1 0x40 DUP2 KECCAK256 PUSH1 0x3 ADD SLOAD DUP2 SWAP1 PUSH2 0xAEF DUP5 PUSH2 0xB00 JUMP JUMPDEST PUSH2 0xAF9 SWAP2 SWAP1 PUSH2 0xEFB JUMP JUMPDEST SWAP4 SWAP3 POP POP POP JUMP JUMPDEST PUSH1 0x1 SLOAD PUSH1 0x1 PUSH1 0x1 PUSH1 0xA0 SHL SUB DUP3 AND PUSH1 0x0 SWAP1 DUP2 MSTORE PUSH1 0x2 PUSH1 0x20 DUP2 SWAP1 MSTORE PUSH1 0x40 DUP3 KECCAK256 DUP1 SLOAD SWAP2 ADD SLOAD SWAP2 SWAP3 PUSH2 0xE10 SWAP3 SWAP1 SWAP2 SWAP1 PUSH2 0xB35 SWAP1 TIMESTAMP PUSH2 0xF8C JUMP JUMPDEST PUSH2 0xB3F SWAP2 SWAP1 PUSH2 0xFA3 JUMP JUMPDEST PUSH2 0xB49 SWAP2 SWAP1 PUSH2 0xFA3 JUMP JUMPDEST PUSH2 0xB53 SWAP2 SWAP1 PUSH2 0xFC2 JUMP JUMPDEST SWAP3 SWAP2 POP POP JUMP JUMPDEST PUSH1 0x40 DUP1 MLOAD PUSH1 0x1 PUSH1 0x1 PUSH1 0xA0 SHL SUB DUP5 AND PUSH1 0x24 DUP3 ADD MSTORE PUSH1 0x44 DUP1 DUP3 ADD DUP5 SWAP1 MSTORE DUP3 MLOAD DUP1 DUP4 SUB SWAP1 SWAP2 ADD DUP2 MSTORE PUSH1 0x64 SWAP1 SWAP2 ADD SWAP1 SWAP2 MSTORE PUSH1 0x20 DUP2 ADD DUP1 MLOAD PUSH28 0xFFFFFFFFFFFFFFFFFFFFFFFFFFFFFFFFFFFFFFFFFFFFFFFFFFFFFFFF AND PUSH4 0xA9059CBB PUSH1 0xE0 SHL OR SWAP1 MSTORE PUSH2 0xBC0 SWAP1 DUP5 SWAP1 PUSH2 0xBC5 JUMP JUMPDEST POP POP POP JUMP JUMPDEST PUSH1 0x0 PUSH2 0xC1A DUP3 PUSH1 0x40 MLOAD DUP1 PUSH1 0x40 ADD PUSH1 0x40 MSTORE DUP1 PUSH1 0x20 DUP2 MSTORE PUSH1 0x20 ADD PUSH32 0x5361666545524332303A206C6F772D6C6576656C2063616C6C206661696C6564 DUP2 MSTORE POP DUP6 PUSH1 0x1 PUSH1 0x1 PUSH1 0xA0 SHL SUB AND PUSH2 0xCAA SWAP1 SWAP3 SWAP2 SWAP1 PUSH4 0xFFFFFFFF AND JUMP JUMPDEST DUP1 MLOAD SWAP1 SWAP2 POP ISZERO PUSH2 0xBC0 JUMPI DUP1 DUP1 PUSH1 0x20 ADD SWAP1 MLOAD DUP2 ADD SWAP1 PUSH2 0xC38 SWAP2 SWAP1 PUSH2 0xFE4 JUMP JUMPDEST PUSH2 0xBC0 JUMPI PUSH1 0x40 MLOAD PUSH3 0x461BCD PUSH1 0xE5 SHL DUP2 MSTORE PUSH1 0x20 PUSH1 0x4 DUP3 ADD MSTORE PUSH1 0x2A PUSH1 0x24 DUP3 ADD MSTORE PUSH32 0x5361666545524332303A204552433230206F7065726174696F6E20646964206E PUSH1 0x44 DUP3 ADD MSTORE PUSH32 0x6F74207375636365656400000000000000000000000000000000000000000000 PUSH1 0x64 DUP3 ADD MSTORE PUSH1 0x84 ADD PUSH2 0x248 JUMP JUMPDEST PUSH1 0x60 PUSH2 0xCB9 DUP5 DUP5 PUSH1 0x0 DUP6 PUSH2 0xCC1 JUMP JUMPDEST SWAP5 SWAP4 POP POP POP POP JUMP JUMPDEST PUSH1 0x60 DUP3 SELFBALANCE LT ISZERO PUSH2 0xD39 JUMPI PUSH1 0x40 MLOAD PUSH3 0x461BCD PUSH1 0xE5 SHL DUP2 MSTORE PUSH1 0x20 PUSH1 0x4 DUP3 ADD MSTORE PUSH1 0x26 PUSH1 0x24 DUP3 ADD MSTORE PUSH32 0x416464726573733A20696E73756666696369656E742062616C616E636520666F PUSH1 0x44 DUP3 ADD MSTORE PUSH32 0x722063616C6C0000000000000000000000000000000000000000000000000000 PUSH1 0x64 DUP3 ADD MSTORE PUSH1 0x84 ADD PUSH2 0x248 JUMP JUMPDEST PUSH1 0x1 PUSH1 0x1 PUSH1 0xA0 SHL SUB DUP6 AND EXTCODESIZE PUSH2 0xD90 JUMPI PUSH1 0x40 MLOAD PUSH3 0x461BCD PUSH1 0xE5 SHL DUP2 MSTORE PUSH1 0x20 PUSH1 0x4 DUP3 ADD MSTORE PUSH1 0x1D PUSH1 0x24 DUP3 ADD MSTORE PUSH32 0x416464726573733A2063616C6C20746F206E6F6E2D636F6E7472616374000000 PUSH1 0x44 DUP3 ADD MSTORE PUSH1 0x64 ADD PUSH2 0x248 JUMP JUMPDEST PUSH1 0x0 DUP1 DUP7 PUSH1 0x1 PUSH1 0x1 PUSH1 0xA0 SHL SUB AND DUP6 DUP8 PUSH1 0x40 MLOAD PUSH2 0xDAC SWAP2 SWAP1 PUSH2 0x1036 JUMP JUMPDEST PUSH1 0x0 PUSH1 0x40 MLOAD DUP1 DUP4 SUB DUP2 DUP6 DUP8 GAS CALL SWAP3 POP POP POP RETURNDATASIZE DUP1 PUSH1 0x0 DUP2 EQ PUSH2 0xDE9 JUMPI PUSH1 0x40 MLOAD SWAP2 POP PUSH1 0x1F NOT PUSH1 0x3F RETURNDATASIZE ADD AND DUP3 ADD PUSH1 0x40 MSTORE RETURNDATASIZE DUP3 MSTORE RETURNDATASIZE PUSH1 0x0 PUSH1 0x20 DUP5 ADD RETURNDATACOPY PUSH2 0xDEE JUMP JUMPDEST PUSH1 0x60 SWAP2 POP JUMPDEST POP SWAP2 POP SWAP2 POP PUSH2 0xDFE DUP3 DUP3 DUP7 PUSH2 0xE09 JUMP JUMPDEST SWAP8 SWAP7 POP POP POP POP POP POP POP JUMP JUMPDEST PUSH1 0x60 DUP4 ISZERO PUSH2 0xE18 JUMPI POP DUP2 PUSH2 0xAF9 JUMP JUMPDEST DUP3 MLOAD ISZERO PUSH2 0xE28 JUMPI DUP3 MLOAD DUP1 DUP5 PUSH1 0x20 ADD REVERT JUMPDEST DUP2 PUSH1 0x40 MLOAD PUSH3 0x461BCD PUSH1 0xE5 SHL DUP2 MSTORE PUSH1 0x4 ADD PUSH2 0x248 SWAP2 SWAP1 PUSH2 0x1052 JUMP JUMPDEST PUSH1 0x0 PUSH1 0x20 DUP3 DUP5 SUB SLT ISZERO PUSH2 0xE54 JUMPI PUSH1 0x0 DUP1 REVERT JUMPDEST POP CALLDATALOAD SWAP2 SWAP1 POP JUMP JUMPDEST PUSH1 0x1 PUSH1 0x1 PUSH1 0xA0 SHL SUB DUP2 AND DUP2 EQ PUSH2 0x60A JUMPI PUSH1 0x0 DUP1 REVERT JUMPDEST PUSH1 0x0 PUSH1 0x20 DUP3 DUP5 SUB SLT ISZERO PUSH2 0xE82 JUMPI PUSH1 0x0 DUP1 REVERT JUMPDEST DUP2 CALLDATALOAD PUSH2 0xAF9 DUP2 PUSH2 0xE5B JUMP JUMPDEST PUSH1 0x20 DUP1 DUP3 MSTORE DUP3 MLOAD DUP3 DUP3 ADD DUP2 SWAP1 MSTORE PUSH1 0x0 SWAP2 SWAP1 PUSH1 0x40 SWAP1 DUP2 DUP6 ADD SWAP1 DUP7 DUP5 ADD DUP6 JUMPDEST DUP3 DUP2 LT ISZERO PUSH2 0xED8 JUMPI DUP2 MLOAD DUP1 MLOAD PUSH1 0x1 PUSH1 0x1 PUSH1 0xA0 SHL SUB AND DUP6 MSTORE DUP7 ADD MLOAD DUP7 DUP6 ADD MSTORE SWAP3 DUP5 ADD SWAP3 SWAP1 DUP6 ADD SWAP1 PUSH1 0x1 ADD PUSH2 0xEAA JUMP JUMPDEST POP SWAP2 SWAP8 SWAP7 POP POP POP POP POP POP POP JUMP JUMPDEST PUSH4 0x4E487B71 PUSH1 0xE0 SHL PUSH1 0x0 MSTORE PUSH1 0x11 PUSH1 0x4 MSTORE PUSH1 0x24 PUSH1 0x0 REVERT JUMPDEST PUSH1 0x0 DUP3 NOT DUP3 GT ISZERO PUSH2 0xF0E JUMPI PUSH2 0xF0E PUSH2 0xEE5 JUMP JUMPDEST POP ADD SWAP1 JUMP JUMPDEST PUSH4 0x4E487B71 PUSH1 0xE0 SHL PUSH1 0x0 MSTORE PUSH1 0x32 PUSH1 0x4 MSTORE PUSH1 0x24 PUSH1 0x0 REVERT JUMPDEST PUSH1 0x0 PUSH1 0x1 DUP3 ADD PUSH2 0xF3B JUMPI PUSH2 0xF3B PUSH2 0xEE5 JUMP JUMPDEST POP PUSH1 0x1 ADD SWAP1 JUMP JUMPDEST PUSH1 0x0 DUP2 PUSH2 0xF51 JUMPI PUSH2 0xF51 PUSH2 0xEE5 JUMP JUMPDEST POP PUSH1 0x0 NOT ADD SWAP1 JUMP JUMPDEST PUSH4 0x4E487B71 PUSH1 0xE0 SHL PUSH1 0x0 MSTORE PUSH1 0x41 PUSH1 0x4 MSTORE PUSH1 0x24 PUSH1 0x0 REVERT JUMPDEST PUSH1 0x0 PUSH1 0x20 DUP3 DUP5 SUB SLT ISZERO PUSH2 0xF81 JUMPI PUSH1 0x0 DUP1 REVERT JUMPDEST DUP2 MLOAD PUSH2 0xAF9 DUP2 PUSH2 0xE5B JUMP JUMPDEST PUSH1 0x0 DUP3 DUP3 LT ISZERO PUSH2 0xF9E JUMPI PUSH2 0xF9E PUSH2 0xEE5 JUMP JUMPDEST POP SUB SWAP1 JUMP JUMPDEST PUSH1 0x0 DUP2 PUSH1 0x0 NOT DIV DUP4 GT DUP3 ISZERO ISZERO AND ISZERO PUSH2 0xFBD JUMPI PUSH2 0xFBD PUSH2 0xEE5 JUMP JUMPDEST POP MUL SWAP1 JUMP JUMPDEST PUSH1 0x0 DUP3 PUSH2 0xFDF JUMPI PUSH4 0x4E487B71 PUSH1 0xE0 SHL PUSH1 0x0 MSTORE PUSH1 0x12 PUSH1 0x4 MSTORE PUSH1 0x24 PUSH1 0x0 REVERT JUMPDEST POP DIV SWAP1 JUMP JUMPDEST PUSH1 0x0 PUSH1 0x20 DUP3 DUP5 SUB SLT ISZERO PUSH2 0xFF6 JUMPI PUSH1 0x0 DUP1 REVERT JUMPDEST DUP2 MLOAD DUP1 ISZERO ISZERO DUP2 EQ PUSH2 0xAF9 JUMPI PUSH1 0x0 DUP1 REVERT JUMPDEST PUSH1 0x0 JUMPDEST DUP4 DUP2 LT ISZERO PUSH2 0x1021 JUMPI DUP2 DUP2 ADD MLOAD DUP4 DUP3 ADD MSTORE PUSH1 0x20 ADD PUSH2 0x1009 JUMP JUMPDEST DUP4 DUP2 GT ISZERO PUSH2 0x1030 JUMPI PUSH1 0x0 DUP5 DUP5 ADD MSTORE JUMPDEST POP POP POP POP JUMP JUMPDEST PUSH1 0x0 DUP3 MLOAD PUSH2 0x1048 DUP2 DUP5 PUSH1 0x20 DUP8 ADD PUSH2 0x1006 JUMP JUMPDEST SWAP2 SWAP1 SWAP2 ADD SWAP3 SWAP2 POP POP JUMP JUMPDEST PUSH1 0x20 DUP2 MSTORE PUSH1 0x0 DUP3 MLOAD DUP1 PUSH1 0x20 DUP5 ADD MSTORE PUSH2 0x1071 DUP2 PUSH1 0x40 DUP6 ADD PUSH1 0x20 DUP8 ADD PUSH2 0x1006 JUMP JUMPDEST PUSH1 0x1F ADD PUSH1 0x1F NOT AND SWAP2 SWAP1 SWAP2 ADD PUSH1 0x40 ADD SWAP3 SWAP2 POP POP JUMP INVALID LOG2 PUSH5 0x6970667358 0x22 SLT KECCAK256 PC ADDMOD 0x4A 0xB9 DUP2 LOG3 STOP PUSH14 0x312A87477672C95422086C2ABF92 0xD1 PUSH5 0xAC97A54533 PUSH29 0x9D5C64736F6C634300080D003300000000000000000000000000000000 "
    },
    "gasEstimates": {
      "creation": {
        "codeDepositCost": "856600",
        "executionCost": "infinite",
        "totalCost": "infinite"
      },
      "external": {
        "availableRewards(address)": "infinite",
        "claimRewards()": "infinite",
        "getStakedTokens(address)": "infinite",
        "nftCollection()": "infinite",
        "rewardsToken()": "infinite",
        "stake(uint256)": "infinite",
        "stakerAddress(uint256)": "2522",
        "stakers(address)": "6811",
        "withdraw(uint256)": "infinite"
      },
      "internal": {
        "calculateRewards(address)": "infinite"
      }
    },
    "methodIdentifiers": {
      "availableRewards(address)": "f854a27f",
      "claimRewards()": "372500ab",
      "getStakedTokens(address)": "63c28db1",
      "nftCollection()": "6588103b",
      "rewardsToken()": "d1af0c7d",
      "stake(uint256)": "a694fc3a",
      "stakerAddress(uint256)": "94067045",
      "stakers(address)": "9168ae72",
      "withdraw(uint256)": "2e1a7d4d"
    }
  },
  "storageLayout": {
    "storage": [
      {
        "astId": 510,
        "contract": "devilwears-staking.sol:ERC721Staking",
        "label": "_status",
        "offset": 0,
        "slot": "0",
        "type": "t_uint256"
      },
      {
        "astId": 54,
        "contract": "devilwears-staking.sol:ERC721Staking",
        "label": "rewardsPerHour",
        "offset": 0,
        "slot": "1",
        "type": "t_uint256"
      },
      {
        "astId": 59,
        "contract": "devilwears-staking.sol:ERC721Staking",
        "label": "stakers",
        "offset": 0,
        "slot": "2",
        "type": "t_mapping(t_address,t_struct(Staker)51_storage)"
      },
      {
        "astId": 63,
        "contract": "devilwears-staking.sol:ERC721Staking",
        "label": "stakerAddress",
        "offset": 0,
        "slot": "3",
        "type": "t_mapping(t_uint256,t_address)"
      }
    ],
    "types": {
      "t_address": {
        "encoding": "inplace",
        "label": "address",
        "numberOfBytes": "20"
      },
      "t_array(t_struct(StakedToken)40_storage)dyn_storage": {
        "base": "t_struct(StakedToken)40_storage",
        "encoding": "dynamic_array",
        "label": "struct ERC721Staking.StakedToken[]",
        "numberOfBytes": "32"
      },
      "t_mapping(t_address,t_struct(Staker)51_storage)": {
        "encoding": "mapping",
        "key": "t_address",
        "label": "mapping(address => struct ERC721Staking.Staker)",
        "numberOfBytes": "32",
        "value": "t_struct(Staker)51_storage"
      },
      "t_mapping(t_uint256,t_address)": {
        "encoding": "mapping",
        "key": "t_uint256",
        "label": "mapping(uint256 => address)",
        "numberOfBytes": "32",
        "value": "t_address"
      },
      "t_struct(StakedToken)40_storage": {
        "encoding": "inplace",
        "label": "struct ERC721Staking.StakedToken",
        "members": [
          {
            "astId": 37,
            "contract": "devilwears-staking.sol:ERC721Staking",
            "label": "staker",
            "offset": 0,
            "slot": "0",
            "type": "t_address"
          },
          {
            "astId": 39,
            "contract": "devilwears-staking.sol:ERC721Staking",
            "label": "tokenId",
            "offset": 0,
            "slot": "1",
            "type": "t_uint256"
          }
        ],
        "numberOfBytes": "64"
      },
      "t_struct(Staker)51_storage": {
        "encoding": "inplace",
        "label": "struct ERC721Staking.Staker",
        "members": [
          {
            "astId": 42,
            "contract": "devilwears-staking.sol:ERC721Staking",
            "label": "amountStaked",
            "offset": 0,
            "slot": "0",
            "type": "t_uint256"
          },
          {
            "astId": 46,
            "contract": "devilwears-staking.sol:ERC721Staking",
            "label": "stakedTokens",
            "offset": 0,
            "slot": "1",
            "type": "t_array(t_struct(StakedToken)40_storage)dyn_storage"
          },
          {
            "astId": 48,
            "contract": "devilwears-staking.sol:ERC721Staking",
            "label": "timeOfLastUpdate",
            "offset": 0,
            "slot": "2",
            "type": "t_uint256"
          },
          {
            "astId": 50,
            "contract": "devilwears-staking.sol:ERC721Staking",
            "label": "unclaimedRewards",
            "offset": 0,
            "slot": "3",
            "type": "t_uint256"
          }
        ],
        "numberOfBytes": "128"
      },
      "t_uint256": {
        "encoding": "inplace",
        "label": "uint256",
        "numberOfBytes": "32"
      }
    }
  },
  "userdoc": {
    "kind": "user",
    "methods": {},
    "version": 1
  }
}